:020000040800F2
:1000000000000320E93E0008393F0008393F00089E
:10001000393F0008393F0008393F00080000000060
:100020000000000000000000000000004134000853
:10003000393F00080000000071340008413C00080E
:10004000393F0008393F0008393F0008393F0008B0
:10005000393F0008393F0008393F0008393F0008A0
:10006000393F0008393F0008393F0008393F000890
:10007000393F0008393F0008393F0008393F000880
:10008000393F0008393F0008393F0008393F000870
:10009000393F0008393F0008393F0008393F000860
:1000A000393F00089D3E0008393F0008393F0008ED
:1000B000393F0008393F0008393F0008393F000840
:1000C000393F0008393F0008393F0008393F000830
:1000D000393F0008393F0008393F0008393F000820
:1000E000393F0008393F0008393F0008393F000810
:1000F000393F0008393F0008393F0008393F000800
:10010000393F0008393F0008393F0008393F0008EF
:10011000393F0008393F0008393F0008393F0008DF
:10012000393F0008393F00088D3E0008393F00087C
:10013000393F0008393F0008393F0008393F0008BF
:10014000393F0008393F0008393F0008593C000892
:10015000393F0008393F0008393F0008393F00089F
:10016000393F0008393F0008393F0008393F00088F
:10017000393F0008393F0008393F000800000000FF
:10018000393F0008393F0008393F0008393F00086F
:10019000393F0008393F0008393F0008393F00085F
:0C01A000393F0008393F0008393F0008D3
:1001B00010B5054C227832B9044B13B10448AFF3A3
:1001C00000800123237010BD3401002000000000D6
:1001D000843F000808B5034B1BB103490348AFF344
:1001E000008008BD0000000038010020843F0008A6
:1001F00010B50446074B1868074BA3FB0030800975
:1002000000F01EFA002221464FF0FF3000F0E4F922
:10021000002010BD00000020D34D621008B50B4B2C
:100220001A6842F400721A601A6842F480621A6016
:100230001A6842F480721A60032000F0BBF90F20A4
:10024000FFF7D6FF03F0B2FB002008BD003C0240E0
:10025000024A136801331360704700BF5001002049
:10026000014B1868704700BF5001002030B583B0C3
:100270000190FFF7F5FF0546019CB4F1FF3F00D068
:100280000134FFF7EDFF401BA042FAD303B030BDAD
:100290004C4B5A6822F440325A605A6841680A430B
:1002A0005A600268536823F480735360026853688D
:1002B000016943EA012353600268536823F04073E5
:1002C00053600268536881680B4353600268936807
:1002D00023F40063936002689368C1680B439360E2
:1002E000826A394B9A425BD00268936823F070634C
:1002F000936002689368816A0B4393600268936815
:1003000023F04053936002689368C16A0B43936083
:100310000268936823F0020393600268936881691E
:1003200043EA41039360036A002B44D00268536898
:1003300043F4006353600268536823F460435360DE
:10034000436A013B4FF4604292FAA2F2B2FA82F29F
:10035000934001684A6813434B600268D36A23F4F0
:100360007003D3620168CB6AC269013A43EA02535F
:10037000CB620268936823F4007393600268936809
:10038000016B43EA412393600268936823F480631E
:10039000936002689368416943EA812393607047E0
:1003A0000268936823F0706393600268936823F097
:1003B00040539360ACE70268536823F400635360D2
:1003C000CBE700BF002301400100000F30B310B5A0
:1003D0000446036C43B1236C13F0100F0AD00120C4
:1003E000002384F83C3010BD436480F83C3003F0B7
:1003F0000DFBF0E7236C23F4885323F0020343F052
:10040000020323642046FFF743FF00206064236C4F
:1004100023F0030343F001032364E1E70120704765
:1004200030B482B00023019390F83C30012B00F0EF
:10043000B480012380F83C300B68092B3ED9056855
:10044000EA689BB203EB43031E3B072404FA03F361
:1004500022EA0303EB600568EA688C680B8803EB0B
:1004600043031E3B04FA03F31343EB604B68062B74
:100470003AD805686A6B03EB8303053B1F2404FA33
:1004800003F322EA03036B6305686A6B4B6803EBB3
:100490008303053B0C8804FA03F313436B63026880
:1004A0003F4B9A4250D002683D4B9A4255D00023B0
:1004B00080F83C30184602B030BC704705682A69A5
:1004C0009BB203EB4303072404FA03F322EA03037A
:1004D0002B6105682A698C680B8803EB430304FAD7
:1004E00003F313432B61C1E70C2B16D805682A6B65
:1004F00003EB8303233B1F2404FA03F322EA0303E1
:100500002B6305682A6B4B6803EB8303233B0C8842
:1005100004FA03F313432B63C1E70568EA6A03EBAC
:100520008303413B1F2404FA03F322EA0303EB6233
:100530000568EA6A4B6803EB8303413B0C8804FAC5
:1005400003F31343EB62AAE70B68122BABD1154AF6
:10055000536843F480035360A5E70B68124A934243
:1005600001D0112BA3D10F4A536843F40003536009
:100570000A680D4B9A429AD10C4B1B680C4AA2FB9D
:1005800003239B0C03EB83035A000192019B002B76
:100590008DD0019B013B0193F8E702208BE700BF60
:1005A0000020014000230140120000100000002044
:1005B00083DE1B43074AD36823F4E0631B041B0C50
:1005C000000200F4E060184340F0BF6040F40030E7
:1005D000D060704700ED00E030B4174BDB68C3F328
:1005E0000223C3F10704042C28BF04241D1D062D7B
:1005F00001D9033B00E000234FF0FF3505FA04F476
:1006000021EA0401994005FA03F322EA030319439E
:10061000002809DB0901C9B200F1604000F5614022
:1006200080F8001330BC704700F00F000901C9B218
:10063000024B1954F6E700BF00ED00E014ED00E0B6
:100640000138B0F1807F0AD2064B5860064AF0218B
:1006500082F823100020986007221A60704701205A
:10066000704700BF10E000E000ED00E0042805D076
:10067000054A136823F0040313607047024A1368A5
:1006800043F004031360704710E000E0F0B583B05E
:10069000044600230193724B1D68724BA3FB053582
:1006A000AD0A876D3E68C26D08239340334210D077
:1006B00003681A6812F0040F0BD01A6822F00402C3
:1006C0001A60C26D08239340BB60436D43F0010381
:1006D0004365E26D644B9340334209D0226852690E
:1006E00012F0800F04D0BB60636D43F002036365BA
:1006F000E26D5E4B9340334209D02268126812F0DB
:10070000020F04D0BB60636D43F004036365E26DC8
:1007100010239340334224D02268126812F0080F4D
:100720001FD0BB6023681A6812F4802F0DD01B689D
:1007300013F4002F04D1236C9BB12046984710E09E
:10074000A36C73B1204698470BE01A6812F4807FBF
:1007500003D11A6822F008021A60236C0BB12046FC
:100760009847E26D20239340334255D022681268A7
:1007700012F0100F50D0BB6094F83530DBB2052B6F
:100780000ED023681A6812F4802F33D01B6813F43C
:10079000002F2AD1636C002B3ED0204698473BE0C7
:1007A0002268136823F0160313602268536923F04C
:1007B00080035361236CA3B12268136823F00803FC
:1007C0001360E26D3F239340BB60002384F8343014
:1007D000012384F83530236D002B3FD02046984705
:1007E0003CE0A36C002BE7D1EBE7E36BA3B1204621
:1007F000984711E01A6812F4807F09D11A6822F034
:1008000010021A60002384F83430012384F8353054
:10081000E36B0BB120469847636DFBB1636D13F03A
:10082000010F17D0052384F835302268136823F0B0
:1008300001031360019B01330193AB4204D8236889
:100840001B6813F0010FF5D1002384F83430012325
:1008500084F83530E36C0BB12046984703B0F0BD07
:1008600000000020B5814E1B0100800004008000C4
:100870005079137943EA002307480B50D0789378D6
:100880001B0443EA0063507843EA002312781343C1
:10089000024A8B50704700BF4080024044800240B3
:1008A00070B59EB0044629B14FF40063C3604FF4A5
:1008B00080438360E369002B6AD14FF48063079320
:1008C00021680B68394A1A40A368E0680343079817
:1008D000034343F4007313430B6023681D68012036
:1008E000FFF7C4FC23681D60236840225A60236818
:1008F0005D680120FFF7BAFC23685D60236800256E
:100900009D602368DD602268936923F0BE031B04A9
:100910001B0C43F08003936123689E690120FFF75D
:10092000A5FC23689E612368DD612368DD690120E1
:10093000FFF79CFC2368DD61226841F218055159DC
:100940001B4B0B4043F0087343F0040353512368DF
:100950005E590120FFF78AFC23685E51236803F586
:100960008053144A1A60236803F580531D680120E0
:10097000FFF77CFC236803F580531D60A369012BFE
:1009800009D0626900212046FFF772FF1EB070BDDA
:100990000023079394E7216841F21C028B5843F42B
:1009A000803343F040038B50EBE700BF0F8120FF03
:1009B000233FDEF88020C102F8B590F84430DBB266
:1009C000822B33D016460546822380F844300268D5
:1009D000136903F01C03048AE402A4B223438901CF
:1009E00001F4F8641C4344F001041461FFF738FC7F
:1009F000074614F0010F10D0FFF732FCC01BB0F512
:100A0000803F02D22B681C69F3E7012385F844304C
:100A1000002385F84530032007E02B685B699BB213
:100A20003360012385F844300020F8BD0220FCE744
:100A300090F84430DBB2422B32D070B505464223E9
:100A400080F844300068036903F01C032C8AE40238
:100A5000A4B22343890101F4F8641C4344F0030465
:100A600092B242612B681C61FFF7FAFB064614F054
:100A7000010F10D0FFF7F4FB801BB0F5803F02D2CE
:100A80002B681C69F3E7012385F84430002385F8BF
:100A90004530032003E0012385F84430002070BD79
:100AA0000220704770B582B000230193002800F047
:100AB0000E81044690F84430002B34D0002300937C
:100AC000844B5A6C42F480425A645B6C03F480435A
:100AD0000093009B804B5A6822F400025A605A68C7
:100AE000216A0A435A60236803F580531A6842F06A
:100AF00001021A60FFF7B4FB0546236803F5805234
:100B0000126812F0010F13D0FFF7AAFB401BB0F5DB
:100B1000FA7FF2D9032584F84450002384F8453045
:100B2000284602B070BD80F8453002F0AFFFC5E73F
:100B30001D6925F01C0501F091F9684B0344684AD2
:100B4000934255D845F0080523681D614FF40042D3
:100B500000212046FFF76CFF0546002860D1FF20EA
:100B6000FFF784FB6368002B00F09180FFF778FBB0
:100B7000064601AA01212046FFF71EFFFFF770FB82
:100B8000801B41F28833984252D8019B13F0040F26
:100B9000EFD04FF4805200212046FFF749FF002894
:100BA00052D1FFF75DFB064601AA01212046FFF75F
:100BB00003FFFFF755FB801B41F2883398424BD867
:100BC000019B13F0200FEFD001AA10212046FFF760
:100BD000F3FE00284CD1019B13F0040F50D04FF4CA
:100BE0000062E26013F0020F4DD00023A3605EE0CC
:100BF0003C4B03443C4A934202D845F00C05A3E722
:100C00003A4B03443A4A93429ED93A4B03443A4AF8
:100C1000934202D845F0040596E745F0100593E7A6
:100C200001212046FFF73CFE012584F8445077E778
:100C300001212046FFF734FE012384F844300023CD
:100C400084F8453003256BE701212046FFF728FE95
:100C5000012584F8445063E701212046FFF720FE78
:100C6000012384F84430002384F84530032557E7F6
:100C700001212046FFF714FE012584F844504FE778
:100C80000022E260AEE74FF48043A3600FE0E26829
:100C9000C2F3CF02A368C3F34F031A4300212046D7
:100CA000FFF7C6FE58B940F6FF70FFF7DFFA0021E4
:100CB0002046FFF7F5FD012384F8443030E7012199
:100CC0002046FFF7EDFD012584F8445028E7012573
:100CD00026E700BF003802400038014000D3CEFEB6
:100CE000BFE1E40040F1E9FD3F787D0100796CFC53
:100CF000FF596202001F0AFA7FF0FA0200230F2B4D
:100D000000F2E280F0B482B039E0092200E0002273
:100D1000B2403A4302356D4E46F825206C4A1568BC
:100D2000E24302EA05064F6817F4803F01D044EA27
:100D30000506674D2E606D6802EA05064F6817F4D8
:100D4000003F01D044EA0506614D6E60AD6802EADD
:100D500005064F6817F4801F01D044EA05065C4D74
:100D6000AE60ED682A404E6816F4001F01D044EAD8
:100D70000502574CE26001330F2B00F2A2800122E2
:100D80009A400C681440A242F5D14D68022D01D062
:100D9000122D10D1DE08083650F826C003F00705E2
:100DA000AF000F25BD402CEA050C0D69BD4045EA9A
:100DB0000C0540F8265006685F000325BD40ED4352
:100DC00005EA060C4E6806F00306BE4046EA0C062D
:100DD00006604E6806F1FF3CBCF1010F03D9112EED
:100DE00001D0122E10D1866805EA060CCE68BE40EE
:100DF00046EA0C068660466826EA02024E68C6F39A
:100E000000169E4016434660C26815408A68BA4084
:100E10002A43C2604A6812F0805FACD0002201927F
:100E20002C4A556C45F480455564526C02F480425E
:100E30000192019A9D08AE1C244A52F8267003F0D4
:100E4000030296000F22B24027EA0207224A90428C
:100E50003FF45DAF02F58062904222D002F58062DD
:100E6000904220D002F5806290421ED002F580624E
:100E700090421CD002F5806290421AD002F5806246
:100E8000904218D002F58062904216D002F580623E
:100E9000904214D002F5806290423FF436AF0A22AD
:100EA00036E7012234E7022232E7032230E7042248
:100EB0002EE705222CE706222AE7072228E7082248
:100EC00026E702B0F0BC7047704700BF0038014011
:100ED000003C014000380240000002400369194212
:100EE00001D001207047002070470AB1816170472E
:100EF0000904816170470000002800F0828010B56D
:100F0000044690F83D30002B41D0242384F83D3036
:100F10002268136823F00103136000F0A5FF3A4B29
:100F2000A3FB00239B0C226853606168374A9142FF
:100F300032D80133226813626368344A934235D849
:100F40005B00B0FBF3F040F6FC73184200D10420C4
:100F50002368D861E369216A22680B43136023691F
:100F6000E16822680B4393606369A16922680B43BF
:100F7000D3602268136843F00103136000202064EB
:100F8000202384F83D30206384F83E0010BD80F8B3
:100F90003C3002F0DDFDB8E74FF4967202FB03F33C
:100FA0001B4AA2FB03239B090133C3E7A16889B94C
:100FB00003EB4302B0FBF2F2C2F30B02B2FA82F28D
:100FC0005209E2B991B903EB4303B0FBF3F040F4EB
:100FD0000040BDE703EB830202EB8202B0FBF2F2BA
:100FE000C2F30B02B2FA82F25209EAE703EB83037F
:100FF00003EB8303B0FBF3F040F44040A8E701208B
:10100000A6E70120704700BF83DE1B43A0860100D6
:10101000D34D62102DE9F04383B007460D46D0F85A
:101020000080CA00521A93000344DE6C1A6DB61A8F
:101030001B6C9E4200D91E4606F103094FEA99092E
:1010400015E006F103094FEA9909EB005B1B9C00D0
:101050003C44616C3B7C0093B3B2EAB2404601F081
:10106000EAFA636C33446364236D33442365414679
:1010700008EB451303F510639B699BB24B4512D9EE
:10108000EA00521B93003B441A6DDB6C9A420AD271
:101090004BB19E1AC5EBC50293003B441B6C9E42AC
:1010A000CFD91E46CDE73EB90123AB40D1F8345825
:1010B00025EA0305C1F83458002003B0BDE8F083E9
:1010C0002DE9F04704460668304601F0B5FC08B14A
:1010D000BDE8F0870746206801F07FFC0028F7D0C4
:1010E000206801F07AFC10F0020F04D022685369E6
:1010F00003F002035361206801F06FFC10F4002F2D
:1011000075D13D46206801F068FC10F4802F40F056
:10111000D280206801F061FC0028C0F23E81206886
:1011200001F05BFC10F4006F0AD0D6F8083813F019
:10113000010F40F041812268536903F40063536159
:10114000206801F04AFC10F4805F40F0398120688B
:1011500001F043FC10F4005F40F08281206801F050
:101160003CFC10F0100F14D02268936923F0100398
:101170009361376A07F00F08C7F34343022B00F06F
:101180000382062B00F021822268936943F010034A
:101190009361206801F021FC10F0080F40F02982D3
:1011A000206801F01AFC10F4801F40F02B822068A8
:1011B00001F013FC10F4001F40F02E82206801F0B3
:1011C0000CFC10F0804F40F03182206801F005FCEB
:1011D00010F0040F3FF47CAF23685D6815F0040F36
:1011E00040F02D82226853682B43536070E72068DB
:1011F00001F0F7FB80463D4621E0E900491B8A00EB
:101200002244D2F800121B69C3F31203C91AC2F8B0
:101210001012D2F80012D2F804320B44C2F8043291
:1012200028E019F0080F3DD119F0100F04D006EB9B
:1012300045131022C3F8082B01354FEA5808B8F1BE
:10124000000F3FF45FAF18F0010FF5D05FFA85FA99
:101250005146206801F0D5FB814610F0010FE0D027
:1012600006EB45130122C3F8082B03F5306322690E
:10127000012AC2D05146204602F024FD2369012BE9
:10128000CFD1002DCDD1C5EBC50293002344D3F8B7
:101290000C32002BC5D104F56F720121206801F0DA
:1012A000EBFBBEE7204602F005FD06EB45130822E6
:1012B000C3F8082BB8E7206801F09BFB80463D4649
:1012C0002EE0EA00521B93002344196C5A6C0A4426
:1012D0005A6446E019F0080F04D006EB45130822C3
:1012E000C3F8082919F0100F04D006EB451310229B
:1012F000C3F8082919F0400F04D006EB451340222B
:10130000C3F8082919F0020F04D006EB4513022296
:10131000C3F8082919F0800F3AD101354FEA58086F
:10132000B8F1000F3FF4F5AE18F0010FF5D05FFAF9
:1013300085FA5146206801F06DFB814610F0010FDF
:10134000C8D0012202FA05F0D6F8343823EA0003A7
:10135000C6F8343806EB4513C3F8082923699342CD
:10136000AFD05146204602F0B9FC2369012BB1D120
:10137000002DAFD1C5EBC50293002344DB6C002BDD
:10138000A8D104F56F720121206801F075FBA1E777
:1013900029462046FFF73EFEBFE7D6F8043823F083
:1013A0000103C6F80438204602F0D2FC22685369D3
:1013B00003F000435361B2E6204602F0B1FCBAE606
:1013C000B14606F50068D8F8043023F00103C8F8E8
:1013D00004301021206801F001F86368BB4208D98D
:1013E00009EB4713FF22C3F80829C3F8082B01377C
:1013F000F3E74FF0FF33C8F81830D8F81C3043F04B
:101400000113C8F81C30236BEBB1D8F8843043F0DB
:101410000B03C8F88430D8F8443043F00B03C8F805
:101420004430D6F8003823F4FE63C6F8003804F5DB
:101430006F72217C206801F01FFB2268536903F45E
:101440008053536183E6D8F8143043F00B03C8F897
:101450001430D8F8103043F00B03C8F81030E0E730
:10146000206801F0EDFA2268D36823F47053D3604A
:10147000206800F0C7FF90B90023E3604FF40073C9
:1014800063612268D36843F41053D360204602F0AE
:1014900036FC2268536903F4005353615EE603236C
:1014A000E3604023636100F0D9FC674B0344674A63
:1014B000934205D82268D36843F47053D360E5E7BC
:1014C000634B0344634A934205D82268D36843F4CC
:1014D0006053D360DAE7A0F57403A3F510535E4AB6
:1014E000934205D82268D36843F45053D360CDE7C4
:1014F000A0F18373A3F5E743584A934205D82268C5
:10150000D36843F44053D360C0E7554B0344554A76
:10151000934205D82268D36843F43053D360B5E7CB
:10152000514B0344514A934205D82268D36843F48F
:101530002053D360AAE74E4B03444E4A934205D84A
:101540002268D36843F41053D3609FE7A0F1B773C8
:10155000A3F55853484A934205D82268D36843F408
:101560000053D36092E7454B0344454A934205D864
:101570002268D36843F4E053D36087E72268D368D6
:1015800043F4C053D36081E747F6F0731F423FF442
:10159000FBAD3F094FEAC80AAAEB08034FEA8309EB
:1015A000A144C7F30A02D9F80412304601F08AF9BF
:1015B000C7F30A07D9F804323B44C9F80432D9F812
:1015C00010321F44C9F81072DEE5082204F56F716D
:1015D000304601F077F9C7F30A174FEAC803A3EBC7
:1015E00008018A002244D2F810321F44C2F8107257
:1015F000CAE5204602F07DFB2268536903F0080328
:101600005361CDE5E9B2204602F0AEFB2268536992
:1016100003F480135361CAE5E9B2204602F09EFB51
:101620002268536903F400135361C7E5204602F0B2
:10163000A1FB2268536903F080435361C5E520464E
:1016400002F09EFBCEE500BF405327FFFF340C00A5
:10165000401E1BFF3F420F007F4F12001FD613009A
:1016600060B6E5FE5FE3160000D3CEFE3F771B00B9
:10167000C05BB3FEBF9121001F753800E05459FED6
:10168000DF9C410090F8B833012B0BD010B5044615
:10169000012380F8B833006801F08FF9002084F846
:1016A000B80310BD0220704770B54DB2002D22DB8B
:1016B00001F07F06C6EBC606B40004F5FC740444D2
:1016C00001F07F012170ED0F6570A260E37005B13C
:1016D000E180022B17D090F8B833012B16D00546C5
:1016E000012380F8B8332146006800F0ABFE0020EB
:1016F00085F8B80370BD01F07F06C6EBC606B400DE
:1017000038340444DCE700232371E4E70220F1E7E6
:1017100070B501F07F06F500A91B8C0004F5FC7480
:101720000119AD1BAC000444C4F80422C4F80C3207
:101730000023C4F8103284F8F93184F8F8610369A1
:10174000012B06D066B9DAB2006800F0C4FE0020B2
:1017500070BDC6EBC605AC000444C4F80822F1E72E
:10176000DAB2006800F07CFFF1E770B501F07F06A7
:10177000F500A91B8C0038340119AD1BAC000444E2
:101780006264E36400232365012384F8393084F81C
:1017900038600369012B06D05EB9DAB2006800F048
:1017A0009AFE002070BDC6EBC605AC000444A264DE
:1017B000F2E7DAB2006800F053FFF2E738B54AB258
:1017C000002A1DDBC1EBC104A30003F5FC73034435
:1017D00001249C7001F07F051D70D20F5A7090F8A3
:1017E000B823A2421BD00446012280F8B823194630
:1017F000006801F07BF85DB1002084F8B80338BDC3
:1018000001F07F04C4EBC404A30038330344DFE7D2
:1018100004F56F72217C206801F02EF9ECE70220BC
:10182000EDE710B54AB2002A1CDBC1EBC104A300EE
:1018300003F5FC73034400249C7001F07F011970D0
:10184000D20F5A7090F8B823012A13D0044601220F
:1018500080F8B8231946006801F07AF8002084F86F
:10186000B80310BD01F07F04C4EBC404A3003833F7
:101870000344E0E70220F4E730B583B00446036890
:1018800013F0010F3BD0AD4B9B6803F00C03042B0E
:101890002CD0AA4B9B6803F00C03082B21D0636863
:1018A000B3F5803F4FD0B3F5A02F52D0A34B1A68A9
:1018B00022F480321A601A6822F480221A60636867
:1018C000002B50D0FEF7CCFC05469C4B1B6813F454
:1018D000003F14D1FEF7C4FC401B6428F5D9032057
:1018E00099E1964B5B6813F4800FD8D0934B1B683B
:1018F00013F4003F03D06368002B00F08781236856
:1019000013F0020F5AD08D4B9B6813F00C0F3ED092
:101910008A4B9B6803F00C03082B33D0E368002B41
:1019200073D0874B01221A60FEF79AFC0546834B61
:101930001B6813F0020F59D1FEF792FC401B0228DE
:10194000F5D9032067E17D4A136843F480331360BF
:10195000B5E77A4B1A6842F480221A601A6842F49A
:1019600080321A60ABE7FEF77BFC0546734B1B68C1
:1019700013F4003FC3D0FEF773FC401B6428F5D975
:10198000032048E16D4B5B6813F4800FC6D16B4BAD
:101990001B6813F0020F03D0E368012B40F038817D
:1019A0006648036823F0F8032169F82292FAA2F24C
:1019B000B2FA82F201FA02F213430360236813F0D1
:1019C000080F46D0636993B35E4B01221A60FEF79D
:1019D00047FC0546594B5B6F13F0020F39D1FEF7F8
:1019E0003FFC401B0228F5D9032014E1534803684B
:1019F00023F0F8032169F82292FAA2F2B2FA82F2F5
:101A000001FA02F213430360D8E74D4B00221A603B
:101A1000FEF726FC0546494B1B6813F0020FCDD09C
:101A2000FEF71EFC401B0228F5D90320F3E0454BCE
:101A300000221A60FEF714FC0546404B5B6F13F062
:101A4000020F06D0FEF70CFC401B0228F5D903203C
:101A5000E1E0236813F0040F1FD1A369002B00F00D
:101A6000D980364A926802F00C02082A00F0D5802C
:101A7000022B7FD0344B00221A60FEF7F1FB0446A4
:101A80002E4B1B6813F0007F00F0BE80FEF7E8FBD2
:101A9000001B0228F4D90320BDE000230193274B4B
:101AA0001A6C42F080521A641B6C03F0805301934D
:101AB000019B264A136843F480731360FEF7D0FB42
:101AC0000546224B1B6813F4807F06D1FEF7C8FB46
:101AD000401B0228F5D903209DE0A368012B1DD0EF
:101AE000052B21D0154B1A6F22F001021A671A6FCD
:101AF00022F004021A67A36853B3FEF7B1FB054650
:101B00000E4B1B6F13F0020FA7D1FEF7A9FB401B72
:101B100041F288339842F3D903207CE0074A136FDF
:101B200043F001031367E6E7044B1A6F42F0040227
:101B30001A671A6F42F001021A67DCE700380240A8
:101B400000004742800E474260004742007000405C
:101B5000FEF786FB0546324B1B6F13F0020F3FF476
:101B60007CAFFEF77DFB401B41F288339842F2D9EF
:101B7000032050E02B4B00221A60FEF771FB054654
:101B8000274B1B6813F0007F06D0FEF769FB401B54
:101B90000228F5D903203EE0E369226A1343616A13
:101BA00047F6C07292FAA2F2B2FA82F201FA02F297
:101BB0001343A26A5208013A4FF4403191FAA1F15D
:101BC000B1FA81F18A401343E16A4FF0706292FAF0
:101BD000A2F2B2FA82F201FA02F21343104A5360FF
:101BE000104B01221A60FEF73BFB04460C4B1B68AE
:101BF00013F0007F06D1FEF733FB001B0228F5D956
:101C0000032008E0002006E0002004E0012002E0BC
:101C1000012000E0002003B030BD0120FBE700BF41
:101C20000038024060004742214B9B6803F00C03E0
:101C3000042B38D0082B38D11D4B586800F03F00DA
:101C40005B6813F4800F1ED01A4AB2FBF0F2184BF7
:101C5000586847F6C073184093FAA3F3B3FA83F3B6
:101C6000D84000FB02F0124B5B6803F440334FF4A2
:101C7000403292FAA2F2B2FA82F2D34001335B0010
:101C8000B0FBF3F070470C4AB2FBF0F2084B586817
:101C900047F6C073184093FAA3F3B3FA83F3D8401E
:101CA00000FB02F0DFE7034870470348704700BFBE
:101CB0000038024000127A000024F400634B1B68D5
:101CC00003F00F038B4208D2CBB2604A1370136843
:101CD00003F00F038B4240F0B28070B5036813F03D
:101CE000020F06D05A4A936823F0F0038468234316
:101CF00093600D460446036813F0010F64D04368F7
:101D0000012B26D09A1E012A2AD9514A126812F0B4
:101D1000020F00F096804E498A6822F003021343B6
:101D20008B60FEF79DFA06466368012B1FD0022BDD
:101D30002CD0032B39D0464B9B6813F00C0F43D0AB
:101D4000FEF78EFA801B41F288339842F3D90320C4
:101D500074E03F4A126812F4003FDCD101206DE0CC
:101D60003B4A126812F0007FD5D1012066E0384B63
:101D70009B6803F00C03042B26D0FEF771FA801B3E
:101D800041F288339842F2D9032057E0304B9B68E8
:101D900003F00C03082B17D0FEF762FA801B41F208
:101DA00088339842F2D9032048E0294B9B6803F01E
:101DB0000C030C2B08D0FEF753FA801B41F288333A
:101DC0009842F2D9032039E0204B1B6803F00F033F
:101DD000AB4207D9EAB21D4B1A701B6803F00F0320
:101DE000AB4230D1236813F0040F06D0184A936831
:101DF00023F4E053E1680B439360236813F0080F6A
:101E000007D0134A936823F46043216943EAC1036E
:101E10009360FFF709FF0E4B9B6803F0F003F0227D
:101E200092FAA2F2B2FA82F2D3400A4AD35CD840C4
:101E3000094B18600F20FEF7DBF9002070BD012070
:101E400070470120FAE70120F8E700BF003C02409C
:101E5000003802409C3F000800000020014B186839
:101E6000704700BF0000002008B5FFF7F7FF074BE1
:101E70009B6803F4E0534FF4E05292FAA2F2B2FAF4
:101E800082F2D340024AD35CD84008BD00380240F9
:101E9000AC3F000808B5FFF7E1FF074B9B6803F470
:101EA00060434FF4604292FAA2F2B2FA82F2D34057
:101EB000024AD35CD84008BD00380240AC3F00085D
:101EC000704770477047704710B5044603681A6939
:101ED00012F0020F11D0DA6812F0020F0DD06FF07D
:101EE00002021A610123037603689B6913F0030F52
:101EF00070D0FFF7E6FF0023237623681A6912F0FB
:101F0000040F12D0DA6812F0040F0ED06FF0040242
:101F10001A610223237623689B6913F4407F5FD004
:101F20002046FFF7CEFF0023237623681A6912F0BC
:101F3000080F12D0DA6812F0080F0ED06FF0080206
:101F40001A61042323762368DB6913F0030F4ED054
:101F50002046FFF7B6FF0023237623681A6912F0A4
:101F6000100F12D0DA6812F0100F0ED06FF01002BE
:101F70001A61082323762368DB6913F4407F3DD080
:101F80002046FFF79EFF0023237623681A6912F08C
:101F9000010F03D0DA6812F0010F36D123681A69F5
:101FA00012F0800F03D0DA6812F0800F34D123686A
:101FB0001A6912F0400F03D0DA6812F0400F32D1E4
:101FC00023681A6912F0200F03D0DA6812F0200F8C
:101FD00030D110BDFFF774FF2046FFF773FF8AE78B
:101FE0002046FFF76DFF2046FFF76CFF9BE720467A
:101FF000FFF766FF2046FFF765FFACE72046FFF7D7
:102000005FFF2046FFF75EFFBDE76FF001021A6138
:10201000204601F04BFFC1E76FF080021A612046B5
:1020200000F010F8C3E76FF040021A612046FFF796
:102030004AFFC5E76FF020021A61204600F001F860
:10204000C7E77047704700002DE9F8430446016870
:102050000A6922F44052C36813430B610168CA68DD
:1020600022F4164222F00C0283680069034360697F
:102070000343E06903431343CB6021684A6922F4B8
:102080004072A36913434B61E369B3F5004F60D01D
:102090002368B84A934200F0148102F580629342AB
:1020A00000F00F81FFF7E0FE00EB800000EB800006
:1020B0006568AD00B0FBF5F5AF4FA7FB05356D09C1
:1020C0002E01FFF7D1FE00EB800000EB8000656879
:1020D000AD00B0FBF5F9FFF7C7FE00EB800000EBA9
:1020E00080006568AD00B0FBF5F5A7FB05356D090F
:1020F0004FF0640808FB15952D013235A7FB053517
:102100006D0905F0F0053544FFF7AEFE00EB8000E9
:1021100000EB80006668B600B0FBF6F6FFF7A4FEA1
:1021200000EB800000EB800063689B00B0FBF3F0E5
:10213000A7FB0030400908FB10684FEA081808F1B7
:102140003208A7FB0837C7F3431723682F449F6063
:102150000DE12368874A93425BD002F58062934287
:1021600057D0FFF781FE00EB800000EB8000656830
:102170006D00B0FBF5F5804FA7FB05356D092E010D
:10218000FFF772FE00EB800000EB800065686D00D9
:10219000B0FBF5F9FFF768FE00EB800000EB800074
:1021A00065686D00B0FBF5F5A7FB05356D094FF0CF
:1021B000640808FB1595ED003235A7FB05356D0960
:1021C0006D0005F4F8753544FFF74EFE00EB800016
:1021D00000EB800066687600B0FBF6F6FFF744FE81
:1021E00000EB800000EB800063685B00B0FBF3F362
:1021F000A7FB03235B0908FB13684FEAC80808F133
:102200003208A7FB0837C7F3421723682F449F60A3
:10221000ADE0FFF73FFE00EB800000EB800065685B
:102220006D00B0FBF5F5544FA7FB05356D092E0188
:10223000FFF730FE00EB800000EB800065686D006A
:10224000B0FBF5F9FFF726FE00EB800000EB800005
:1022500065686D00B0FBF5F5A7FB05356D094FF01E
:10226000640808FB1595ED003235A7FB05356D09AF
:102270006D0005F4F8753544FFF70CFE00EB8000A7
:1022800000EB800066687600B0FBF6F6FFF702FE12
:1022900000EB800000EB800063685B00B0FBF3F3B1
:1022A000A7FB03235B0908FB13684FEAC80808F182
:1022B0003208A7FB0837C7F3421723682F449F60F3
:1022C00055E0FFF7E7FD00EB800000EB800065685C
:1022D000AD00B0FBF5F5284FA7FB05356D092E01C4
:1022E000FFF7D8FD00EB800000EB80006568AD00D3
:1022F000B0FBF5F9FFF7CEFD00EB800000EB8000AE
:102300006568AD00B0FBF5F5A7FB05356D094FF02D
:10231000640808FB15952D013235A7FB05356D09BD
:1023200005F0F0053544FFF7B5FD00EB800000EB4C
:1023300080006668B600B0FBF6F6FFF7ABFD00EB79
:10234000800000EB800063689B00B0FBF3F0A7FB0C
:102350000030400908FB10684FEA081808F13208FD
:10236000A7FB0837C7F3431723682F449F60BDE8D6
:10237000F88300BF001001401F85EB5158B310B522
:10238000044690F839300BB3242384F8393022689E
:10239000D36823F40053D3602046FFF755FE22682C
:1023A000136923F4904313612268536923F02A03CD
:1023B00053612268D36843F40053D3600020E06384
:1023C000202384F8393084F83A3010BD80F8383052
:1023D00001F00AFCD8E7012070470000890141F0B4
:1023E0002001016100230133054A934205D80269A7
:1023F00012F0200FF7D1002070470320704700BF74
:10240000400D0300D0F8083800F5006013F0060F07
:1024100010D0836803F00603022B0DD0836803F00D
:102420000603062B0AD0836803F00603042B07D0AB
:10243000002070470020704703207047032070473A
:102440000220704730B44B78012B22D0D0F81C38D2
:102450000D780122AA4043EA0243C0F81C380B78E9
:1024600000EB4310D0F8003B13F4004F0ED1D0F82E
:10247000003B8A68C2F30A02C97842EA81421343E8
:1024800043F0805343F40043C0F8003B002030BCCD
:102490007047D0F81C280D78AB409BB21343C0F8AE
:1024A0001C380C7800EB4410D0F8003913F4004FBE
:1024B000ECD1D0F800398A68C2F30A02C97842EA3E
:1024C000814242EA8452134343F0805343F4004371
:1024D000C0F80039DAE730B44B78012B39D00B78EB
:1024E00000EB4313D3F8104BE40CE404C3F8104B97
:1024F0000B7800EB4313D3F8104B24F0FF5424F473
:10250000C014C3F8104B4B690BB18B684B610B784F
:1025100000EB4313D3F8104B44F40024C3F8104BE2
:102520000B7800EB4313D3F8104B8D68C5F31205FD
:102530002C43C3F8104B012A76D00B7800EB4310E4
:10254000D0F8003B43F00443C0F8003B002030BC0F
:1025500070474B699BBB0B7800EB4313D3F81049D2
:1025600024F0FF5424F4C014C3F810490B7800EB96
:102570004313D3F8104944F40024C3F810490B78EE
:1025800000EB4313D3F81049E40CE404C3F81049FA
:102590000B7800EB4313D3F8004944F00444C3F82C
:1025A0000049012A39D04B69002BCFD0D0F83438FC
:1025B000097801228A401343C0F83438C6E70B7803
:1025C00000EB4313D3F81049E40CE404C3F81049BA
:1025D0000B7800EB4313D3F8104924F0FF5424F494
:1025E000C014C3F810494C698B689C4200D94B61F8
:1025F0000B7800EB4313D3F8104944F40024C3F8DC
:1026000010490B7800EB4313D3F810494D69C5F31B
:1026100012052C43C3F81049BAE70B7800EB4310BE
:102620000B69C0F8143991E7CA680B7800EB4313C3
:10263000C3F8142B81E770B49DF80C4064B90333E0
:102640009E08B44208D200EB023303F5805351F8E0
:10265000045B1D600134F4E7002070BC704700008B
:1026600070B582B04B78012B3ED00B7800EB431352
:10267000D3F8104BE40CE404C3F8104B0B7800EBD8
:102680004313D3F8104B24F0FF5424F4C014C3F8C0
:10269000104B4B69002B40F0D3800B7800EB4313B9
:1026A000D3F8104B8D68C5F312052C43C3F8104BBB
:1026B0000B7800EB4313D3F8104B44F40024C3F819
:1026C000104B012A00F0DB80CB78012B00F0DE807C
:1026D0000B7800EB4310D0F8003B43F00443C0F804
:1026E000003B002002B070BD4B696BBB0B7800EB68
:1026F0004313D3F8104924F0FF5424F4C014C3F852
:1027000010490B7800EB4313D3F8104944F400242C
:10271000C3F810490B7800EB4313D3F81049E40CCD
:10272000E404C3F81049012A54D0CB78012B57D0C8
:102730004B69002B54D0D0F834380E780124B440C3
:102740002343C0F834384BE00B7800EB4313D3F845
:102750001049E40CE404C3F810490B7800EB431370
:10276000D3F8104924F0FF5424F4C014C3F81049DE
:102770000C7800EB4414D4F810594B698E6833443C
:10278000013BB3FBF6F34E4E06EAC3432B43C4F8BA
:1027900010390B7800EB4313D3F810494D69C5F39A
:1027A00012052C43C3F81049CB78012BBBD10B7811
:1027B00000EB4313D3F8104924F0C044C3F8104988
:1027C0000B7800EB4313D3F8104944F00054C3F8DE
:1027D0001049A8E70B7800EB43130C69C3F81449C0
:1027E000CB78012B13D00B7800EB4313D3F80049BF
:1027F00044F00444C3F80049CB78012B7FF471AF57
:1028000000928B8A0A78C968FFF715FF69E7D0F84C
:10281000083813F4807F09D10B7800EB4313D3F809
:10282000004944F00054C3F80049DCE70B7800EBA2
:102830004313D3F8004944F08054C3F80049D2E769
:102840008C682344013BB3FBF4F30C7800EB441495
:10285000D4F8105B1A4E06EAC3463543C4F8105B41
:102860000C7800EB4414D4F8106B8D689BB205FB18
:1028700003F3C3F312033343C4F8103B21E7CA68E0
:102880000B7800EB4313C3F8142B1DE7D0F808387E
:1028900013F4807F09D10B7800EB4313D3F8002B9E
:1028A00042F00052C3F8002B12E70B7800EB431301
:1028B000D3F8002B42F08052C3F8002B08E700BF8A
:1028C0000000F81F03329208002393420CD210B488
:1028D00000F58054246841F8044B01339342F7D348
:1028E00008465DF8044B7047084670474B78012B4B
:1028F00017D00B7800EB4313D3F8002B002A05DB2D
:10290000D3F8002B22F08042C3F8002B0B7800EBA9
:102910004310D0F8003B43F40013C0F8003B002004
:1029200070470B7800EB4313D3F80029002A05DB2E
:10293000D3F8002922F08042C3F800290B7800EB7D
:102940004310D0F8003943F40013C0F80039E6E72B
:102950004B78012B0FD00B7800EB4313D3F8002BEF
:1029600022F40012C3F8002BCB78023BDBB2012B20
:1029700019D9002070470B7800EB4313D3F80029D6
:1029800022F40012C3F80029CB78023BDBB2012B02
:10299000EFD80B7800EB4310D0F8003943F08053A8
:1029A000C0F80039E5E70B7800EB4310D0F8003BA6
:1029B00043F08053C0F8003BDBE7D0F8003823F445
:1029C000FE63C0F80038D0F80038090101F4FE6158
:1029D0000B43C0F8003800207047426980691040FE
:1029E0007047D0F8183800F50060C0691840000C36
:1029F0007047D0F8183800F50060C069184080B200
:102A0000704700EB4111D1F8082B00F500604069D8
:102A10001040704710B4D0F81048D0F83438CB408C
:102A2000DB01DBB2234300EB411000F5106080684E
:102A300018405DF8044B7047406900F00100704792
:102A4000D0F8003923F4FF6323F00703C0F80039FE
:102A500000F500639A6802F00602042A05D05A685D
:102A600042F480725A6000207047D0F8002942F08A
:102A70000302C0F80029F2E710B40024C0F8104B9C
:102A8000D0F8104B44F40024C0F8104BD0F8104B91
:102A900044F01804C0F8104BD0F8104B44F0C04478
:102AA000C0F8104B012903D000205DF8044B70479B
:102AB000C0F8142B4FF08023C0F8003BF4E708B5B2
:102AC000D0F8143233B11B68984708B9002008BD0C
:102AD0000220FCE70220FAE708B5D0F814325B6860
:102AE0009847002008BD38B5044600F50275284611
:102AF00000F016F90123C4F8F431B4F80E32C4F82A
:102B0000F83194F8081201F01F03012B0FD05AB2CC
:102B10003AB1022B10D001F08001204601F04AF9B1
:102B200003E02946204600F074FA002038BD29460B
:102B3000204600F092FAF8E72946204600F0A8FA6D
:102B4000F3E710B5044629BB1346D0F8F421032A55
:102B500001D0002010BDD0F80C11D0F81021914206
:102B60000BD8D0F814321B691BB190F8FC21032A52
:102B70000ED0204600F03CFBEBE7891AC0F80C11A0
:102B80008A4228BF0A4692B2194600F029FBE0E7C4
:102B90009847EEE70A46D0F814329B69002BD8D04C
:102BA00090F8FC110329D4D111469847D1E710B50C
:102BB0000446002947D11346D0F8F421022A05D053
:102BC00094F80032012B3AD0002010BDC169026A8E
:102BD000914217D88169B1FBF2F302FB13132BB9B1
:102BE0008A4203D8D0F8F831994218D3D4F8143275
:102BF000DB681BB194F8FC21032A1DD0204600F0AD
:102C000002FBDDE78A1AC26192B2194600F0E0FACF
:102C100000231A461946204601F027F9D0E7002282
:102C2000114600F0D5FA0021C4F8F8110B460A4607
:102C3000204601F01AF9C3E720469847DEE7002353
:102C400084F80032C0E70A46D0F814325B69002BE2
:102C5000BAD090F8FC110329B6D111469847B3E7D2
:102C600038B5044640230022114601F08FF8402574
:102C7000C4F810512B4600228021204601F086F82E
:102C80002562012384F8FC31D4F818322BB1D4F832
:102C900014325B68217920469847002038BD0174C2
:102CA0000020704790F8FC3180F8FD31042380F853
:102CB000FC310020704790F8FD3180F8FC31002095
:102CC000704708B590F8FC31032B01D0002008BDF7
:102CD000D0F81432DB69002BF8D09847F6E70020D3
:102CE0007047002070470020704708B5012280F827
:102CF000FC21D0F81422526801799047002008BDC9
:102D00004B88012B00D0704710B50446C0F8043240
:102D1000D0F814329B689847204600F069FA10BD3D
:102D20000B7803704B7843708B78CA7803EB0223DF
:102D300043800B794A7903EB022383808B79CA792C
:102D400003EB0223C380704710B50446802101F0D5
:102D500031F80021204601F02DF810BD30B583B0C8
:102D600004460D464A88130A013B062B00F2818077
:102D7000DFE803F00413277F7F637000D0F8103280
:102D80001B680DF10601007C9847BDF8062012B1C2
:102D9000EB88002B71D103B030BD037C43B9D0F870
:102DA00014329B6A0DF10600984702234370ECE74A
:102DB000D0F81432DB6A0DF1060098470223437005
:102DC000E3E7D2B2052A34D8DFE802F0030B131B85
:102DD000232BD0F810325B680DF10601007C984778
:102DE000D3E7D0F810329B680DF10601007C9847BC
:102DF000CBE7D0F81032DB680DF10601007C984774
:102E0000C3E7D0F810321B690DF10601007C98472A
:102E1000BBE7D0F810325B690DF10601007C9847E2
:102E2000B3E7D0F810329B690DF10601007C98479A
:102E3000ABE72946FFF788FFADE7037C33B9D0F84D
:102E400014325B6B0DF1060098479EE72946FFF7A9
:102E50007BFFA0E7037C43B9D0F814321B6B0DF164
:102E600006009847072343708FE72946FFF76CFF5A
:102E700091E72946FFF768FF8DE79A4228BF1A4677
:102E8000ADF806200146204600F095F983E738B5F5
:102E900004468B88E3B9CB88D3B98D7805F07F05DC
:102EA00090F8FC31032B0CD080F8FE51294600F03D
:102EB000BAFF204600F09CF935B1022384F8FC31BA
:102EC00009E0FFF741FF06E0012384F8FC3102E04E
:102ED0002046FFF739FF38BD38B504460D468978DE
:102EE000254B1970012909D890F8FC31022B09D023
:102EF000032B1CD02946FFF727FF02E02946FFF7E6
:102F000023FF38BD81B14160032380F8FC31FFF716
:102F1000D6FD022803D0204600F06AF9F1E72946E1
:102F20002046FFF711FFECE700F062F9E9E789B10D
:102F3000436899421DD0D9B2FFF7CEFD0E4B1978E8
:102F400061602046FFF7BBFD02280DD0204600F04F
:102F50004FF9D6E7022380F8FC314160FFF7BCFD52
:102F6000204600F045F9CCE729462046FFF7ECFE65
:102F7000C7E700F03DF9C4E70400002008B5CB889E
:102F8000012B08D190F8FC31022B07D0032B0DD078
:102F9000FFF7DAFE01E0FFF7D7FE08BD0146002388
:102FA00041F8083F012200F006F9F6E70122011D71
:102FB00000F001F9F1E708B590F8FC31023B012B74
:102FC0000CD80123C360D0F804320BB10323C360D3
:102FD000022200F10C0100F0EEF808BDFFF7B4FE8C
:102FE000FBE710B5044690F8FC31023B012B0DD8ED
:102FF0004B88012B0CD10023C0F80432D0F81432D6
:103000009B689847204600F0F3F801E0FFF79CFE2C
:1030100010BD08B54B78092B1CD8DFE803F0121857
:103020001B151B09051B0F0CFFF798FE002008BDA0
:10303000FFF72DFFFAE7FFF74FFFF7E7FFF79EFFD8
:10304000F4E7FFF7B8FFF1E7FFF75AFEEEE7FFF707
:10305000C8FFEBE7FFF778FEE8E738B504460D4612
:1030600090F8FC31032B0FD10B79012B09D8D0F844
:1030700014329B689847EB8843B9204600F0B8F8B3
:1030800004E0FFF761FE01E0FFF75EFE002038BDBF
:1030900038B505460C468A880B7803F06003202B70
:1030A00013D0D1B26378012B30D058B2002851D060
:1030B000032B0ED195F8FC31022B0CD0032B12D030
:1030C00021462846FFF740FE03E0D0F814329B6803
:1030D0009847002038BD0029FBD08029F9D0284628
:1030E00000F068FEF5E7638813B909B1802909D1BA
:1030F000D5F814329B68214628469847284600F0A8
:1031000077F8E6E7284600F055FEF1E790F8FC3145
:10311000022B05D0032B0AD02146FFF715FED8E776
:103120000029D6D08029D4D000F044FED1E76388AE
:10313000002BCED111F07F0F03D1284600F058F8B4
:10314000C7E700F048FED5F814329B6821462846B0
:103150009847F2E795F8FC31022B06D0032B0BD0F1
:1031600021462846FFF7F0FDB3E711F07F0FB0D0FE
:10317000284600F01FFEACE712F0800F11D101F0DD
:103180007F04103405EB04140434284600F034FEA8
:1031900070B10123236002222146284600F00BF87B
:1031A00097E701F07F04013405EB04140434ECE7E5
:1031B00000232360EFE710B513460222C0F8F42184
:1031C0008361C3610A46002100F03EFE002010BD6D
:1031D00008B513460A46002100F036FE002008BD5F
:1031E00008B513460A46002100F03FFE002008BD46
:1031F00008B50423C0F8F43100231A46194600F03C
:1032000023FE002008BD08B50523C0F8F4310023D3
:103210001A46194600F029FE002008BD43684B609D
:103220009A688A605160996008610368013303609D
:1032300070470369416882688A60416851605A68D2
:10324000824205D000220261186801381860704778
:1032500082685A60F6E70000074B9B6A1B6823B937
:10326000054B4FF0FF32DA627047034B9A6AD2681F
:10327000D2685268DA627047080000202DE9F041F8
:10328000404BD3F81831002B6CD13E4BD3F8105182
:103290000135C3F81051CDB99B6A1B6843B14FF09B
:1032A000500383F31188BFF36F8FBFF34F8FFEE797
:1032B000344B9A6AD3F8F8109962C3F8F820D3F81F
:1032C00020210132C3F82021FFF7C6FF2D4BDB6A16
:1032D000AB423DD900242B4AD2F80031DB6A03EB24
:1032E000830399000A44136B012B42D9012440E067
:1032F0000124244B9B6A1B6863B3224B9B6ADB68E7
:10330000DE6873689D422AD306F104084046FFF741
:1033100090FFB36A1BB106F11800FFF78AFFF36A4A
:1033200001229A40174FD7F80C110A43C7F80C2115
:1033300007F1300003EB83039A0041461044FFF786
:103340006DFFF26AD7F80031DB6A9A42D0D2D0E73B
:103350000024CEE70B4B4FF0FF32DA62BBE7094A9D
:10336000D362B8E7074AD2F824310133C2F82431D6
:103370000024044BD3F8283103B101242046BDE8D2
:10338000F08100BF08000020224BD3F8183123B190
:10339000204B0122C3F8282170471E4A0023C2F89F
:1033A0002831D2F80C31B3FA83F3DBB2C3F11F0337
:1033B00003EB830081000A44126B42B94FF05003C3
:1033C00083F31188BFF36F8FBFF34F8FFEE710B405
:1033D000104A9900CC18A0001044446B6468446300
:1033E00030321944880001460830024494420BD020
:1033F000084903EB83039A000A44536BDB68C1F866
:1034000000315DF8044B70476068024A0A4450631B
:10341000EEE700BF08000020064BD3F804313BB1B3
:10342000044BD3F818310BB10020704702207047CD
:10343000012070470800002000000000000000008C
:10344000074B19680868B0E8F04F80F30988BFF3AC
:103450006F8F4FF0000080F311887047AFF300804A
:103460000801002000000000000000000000000033
:10347000EFF30980BFF36F8F154B1A681EF0100F22
:1034800008BF20ED108A20E9F04F10604DF8043D90
:103490004FF0500080F31188BFF34F8FBFF36F8F51
:1034A000FFF772FF4FF0000080F3118808BC196825
:1034B0000868B0E8F04F1EF0100F08BFB0EC108A9B
:1034C00080F30988BFF36F8F704700BFAFF30080B0
:1034D0000801002008B54FF0500383F31188BFF3B3
:1034E0006F8FBFF34F8FFFF7C9FE18B1034B4FF03B
:1034F00080521A60002383F3118808BD04ED00E0B8
:103500002DE9F0438FB000240194594B1A6B42F01F
:1035100010021A631A6B02F010020192019A0294CF
:103520001A6B42F004021A631A6B02F00402029250
:10353000029A03941A6B42F020021A631A6B02F08B
:1035400020020392039A04941A6B42F080021A63D9
:103550001A6B02F080020492049A05941A6B42F0EE
:1035600001021A631A6B02F001020592059A069491
:103570001A6B42F002021A631A6B02F00202069200
:10358000069A07941A6B42F008021A631A6B02F04B
:1035900008020792079A08941A6B42F040021A63D5
:1035A0001B6B03F040030893089B324F22464FF4F5
:1035B00054413846FDF799FCDFF8C89022464DF299
:1035C00080014846FDF791FC2B4E224640213046B3
:1035D000FDF78BFCDFF8B08022464FF400414046F7
:1035E000FDF783FC702309930A9402230B9309A926
:1035F0003846FDF783FB4FF4005309931F4B0A93A2
:103600000B9409A91E48FDF779FB4FF45443099325
:1036100001250A950B940C9409A93846FDF76EFB19
:103620004DF2800309930A950B940C9409A948461E
:10363000FDF764FB402309930A950B940C9409A9A8
:103640003046FDF75BFB802309930A940B9409A98C
:103650003046FDF753FB4FF4004309930A950B9452
:103660000C9409A94046FDF749FB0FB0BDE8F08373
:103670000038024000100240001802400000111003
:10368000000802400004024000000240FEE7000083
:1036900008B50B480B4B03604FF4E1334360002344
:1036A0008360C36003610C2242618361C361FEF7E2
:1036B00065FE00B908BD40F206210348FFF7E6FFAA
:1036C0005C01002000480040B43F000800B583B012
:1036D0001348144B036001234360038200238DF8D9
:1036E000003080228DF80120E1228DF802208DF833
:1036F00003308DF804308DF80530C0F814D08361A4
:10370000C3614FF400030362FDF7CCF910B903B0B5
:103710005DF804FB40F2CB110348FFF7B7FF00BF91
:10372000E402002000800240B43F000808B50C48C5
:103730000C4B03600C4B436000238360C3604FF469
:103740008042026143618361C3610362FDF7D4FB80
:1037500000B908BD40F2F3110448FFF797FF00BF1E
:103760003C02002000580040A0860100B43F000841
:1037700000B585B01648174B03604FF480334360A3
:1037800000238360036183610362C362124A826221
:10379000C3600122C26103634261FCF717FE68B98E
:1037A0000A230093012301930023029369460848EA
:1037B000FCF736FE38B905B05DF804FB40F27D1128
:1037C0000648FFF763FF40F287110448FFF75EFFEA
:1037D00094020020002001400100000FB43F0008C7
:1037E00008B50C480C4B03600C4B4360002383600E
:1037F000C3604FF48042026143618361C36103622D
:10380000FDF77AFB00B908BD40F2DF110448FFF76D
:103810003DFF00BFE801002000540040A0860100E9
:10382000B43F000800B585B01648174B03604FF44D
:103830008033436000238360036183610362C3625A
:10384000124A8262C3600122C26103634261FCF7D3
:10385000BDFD68B90D23009301230193002302935A
:1038600069460848FCF7DCFD38B905B05DF804FB93
:103870004FF4D1710648FFF709FF4FF4D6710448A1
:10388000FFF704FFA0010020002101400100000F0C
:10389000B43F000800B595B0002101912C4B1A6C83
:1038A00042F080521A641B6C03F080530193019B19
:1038B0000291284B1A6842F440421A601B6803F4D4
:1038C00040430293029B012308934FF4A0230993E2
:1038D00002230E934FF480020F9204221092A8222A
:1038E000119212930723139308A8FDF7C5FF20BB7D
:1038F0000F23039302230493002305934FF4A05353
:1039000006934FF480530793052103A8FEF7D6F9D9
:10391000C0B9FEF7A3FA104BA3FB00308009FCF7F7
:103920008FFE0420FCF7A2FE00220F214FF0FF3093
:10393000FCF752FE15B05DF804FB4FF4A571074883
:10394000FFF7A4FE4FF4AC710448FFF79FFE00BFE1
:103950000038024000700040D34D6210B43F0008B0
:1039600008B5FCF75BFCFFF795FFFFF7C9FDFFF714
:103970008FFEFFF7ABFEFFF7D9FEFFF7F9FEFFF76B
:103980002FFFFFF74FFF04E0012280210548FDF7DC
:10399000ACFA4FF400510448FDF7A0FA0028F8D023
:1039A000F2E700BF000402400008024008B503200F
:1039B000FCF700FE002211466FF00B00FCF70CFE36
:1039C000002211466FF00A00FCF706FE00221146A5
:1039D0006FF00900FCF700FE002211466FF00400B2
:1039E000FCF7FAFD002211466FF00300FCF7F4FD2E
:1039F00000220F216FF00100FCF7EEFD00220F21E5
:103A00004FF0FF30FCF7E8FD08BD000000B589B0BD
:103A100003681A4A934205D0194A934218D009B054
:103A20005DF804FB00210191164B5A6C42F4807240
:103A30005A645B6C03F480730193019B012303932D
:103A400003230493059103A90F48FDF757F9E6E70F
:103A5000002102910B4B5A6C42F400725A645B6C69
:103A600003F400730293029B08230393032304933C
:103A7000059103A90448FDF741F9D0E70020014072
:103A800000210140003802400008024002682B4B30
:103A90009A4200D07047F0B589B000240094A3F595
:103AA00090431A6B42F000721A631A6B02F00072B4
:103AB0000092009A01941A6B42F080621A631A6BAA
:103AC00002F080620192019A02941A6B42F0006245
:103AD0001A631B6B03F000630293029B3223039370
:103AE000022704970594032606960B25079503A93C
:103AF0001348FDF703F9862303930497059406966C
:103B0000079503A90F48FDF7F9F84FF40053039305
:103B1000049705940696079503A90B48FDF7EEF860
:103B20004FF420530393049705940696079503A931
:103B30000648FDF7E3F809B0F0BD00BF0080024081
:103B40000008024000000240000402400018024049
:103B500000B589B003681F4A934205D01E4A9342BC
:103B60001ED009B05DF804FB4FF4107303931223C9
:103B7000049301230593032306930423079303A9C6
:103B80001648FDF7BBF800230193154B1A6C42F45D
:103B900000121A641B6C03F400130193019BE0E70D
:103BA0000323039312220492012205920693042315
:103BB000079303A90B48FDF7A1F800230293084BD4
:103BC0001A6C42F480021A641B6C03F480030293A3
:103BD000029BC6E700540040005800400004024029
:103BE00000380240001402400268124B9A4200D092
:103BF000704700B587B0002300930F4B1A6C42F456
:103C000080221A641B6C03F480230093009B4FF402
:103C1000407301930223029301230393032304932C
:103C20000723059301A90548FDF768F807B05DF87B
:103C300004FB00BF0048004000380240000C024076
:103C400008B5FCF705FBFFF7E7FB012800D108BD2D
:103C5000FFF740FCFBE7000008B50248FDF730FA2B
:103C600008BD00BF2C0300200F49D1F8883043F471
:103C70007003C1F888300D4B1A6842F001021A60D7
:103C8000002098601A6822F0847222F480321A6050
:103C9000074A5A601A6822F480221A60D8604FF0EE
:103CA00000638B60704700BF00ED00E00038024009
:103CB0001030002408B500F56F71D0F8EC03FEF762
:103CC00012FF08BD08B5C1EBC10293000344D3F84D
:103CD0000422D0F8EC03FEF734FF08BD08B5C1EBB1
:103CE000C102930003445A6CD0F8EC03FEF75FFF67
:103CF00008BD08B5D0F8EC03FEF7E3FF08BD10B52A
:103D00000446C3684BB10121D4F8EC03FEF7C7FFAA
:103D1000D4F8EC03FEF7A4FF10BD0021F4E7000087
:103D200010B50446D0F8EC03FEF7BCFF2268D2F8C9
:103D3000003E43F00103C2F8003E236A23B1034A68
:103D4000136943F00603136110BD00BF00ED00E0EE
:103D500008B5D0F8EC03FEF7AEFF08BD08B5D0F803
:103D6000EC03FEF7BEFF08BD08B5D0F8EC03FEF784
:103D7000B6FF08BD08B5D0F8EC03FEF7B4FF08BDE8
:103D800008B5D0F8EC03FEF7B0FF08BD10B51C462F
:103D900013462246D0F82002FDF786FC022807D8F9
:103DA000DFE800F002060400002002E0012000E04D
:103DB000022010BD08B5D0F82002FDF7FFFC022854
:103DC00007D8DFE800F002060400002002E001202E
:103DD00000E0022008BD08B5D0F82002FDF721FD63
:103DE000022807D8DFE800F002060400002002E005
:103DF000012000E0022008BDD0F8203211F0800F31
:103E000008D101F07F01C1EBC1018A00134493F88E
:103E1000FA01704701F07F01C1EBC1018A00134430
:103E200093F83A00704708B5D0F82002FDF72AFC55
:103E3000022807D8DFE800F002060400002002E0B4
:103E4000012000E0022008BD08B5D0F82002FDF7EF
:103E50008CFC022807D8DFE800F0020604000020EE
:103E600002E0012000E0022008BD08B5D0F82002E1
:103E7000FDF74EFC022807D8DFE800F00206040038
:103E8000002002E0012000E0022008BD08B5024841
:103E9000FCF7FCFB08BD00BFA807002008B50248DE
:103EA000FEF712F808BD00BF240800200A480023CE
:103EB00083650A4A13600A4B1B68D96821F0010127
:103EC000D96008490968D162012151616FF001028E
:103ED0001A6180F8541070471C0700200000014050
:103EE000240800206C080020DFF834D0002103E013
:103EF0000C4B5B58435004310B480C4B42189A4210
:103F0000F6D30B4A02E0002342F8043B094B9A42E5
:103F1000F9D3FFF7A9FE00F011F8FFF721FD704774
:103F200000000320CC3F0008000000200400002017
:103F300004000020A8090020FEE7000070B50D4D28
:103F40000D4C641BA4100026A64209D10B4D0C4C4D
:103F500000F018F8641BA4100026A64205D170BD1D
:103F600055F8043B98470136EEE755F8043B98476F
:103F70000136F2E7C43F0008C43F0008C43F000810
:103F8000C83F0008F8B500BFF8BC08BC9E467047A3
:0C3F9000F8B500BFF8BC08BC9E467047A6
:103F9C0000000000000000000102030406070809ED
:103FAC0000000000010203042E2E2F5372632F6DAC
:083FBC0061696E2E6300000034
:043FC400D50100081B
:043FC800B10100083B
:043FCC000024F400D9
:0400000508003EE9C8
:00000001FF
