:020000040800F2
:1000000000000320918D0008E18D0008E18D0008BB
:10001000E18D0008E18D0008E18D0008000000007E
:10002000000000000000000000000000515B00081C
:10003000E18D000800000000F15B00084D80000821
:10004000E18D0008E18D0008E18D0008E18D0008D8
:10005000E18D0008E18D0008E18D0008E18D0008C8
:10006000E18D0008E18D0008E18D0008E18D0008B8
:10007000E18D0008E18D0008E18D0008E18D0008A8
:10008000E18D0008E18D0008E18D0008E18D000898
:10009000E18D0008E18D0008E18D0008E18D000888
:1000A000E18D0008F18C0008E18D0008E18D000869
:1000B000E18D0008E18D0008E18D0008E18D000868
:1000C000E18D0008E18D0008E18D0008E18D000858
:1000D000E18D0008E18D0008E18D0008E18D000848
:1000E000E18D0008E18D0008E18D0008E18D000838
:1000F000E18D0008E18D0008E18D0008E18D000828
:10010000E18D0008E18D0008E18D0008E18D000817
:10011000E18D0008E18D0008E18D0008E18D000807
:10012000E18D0008E18D0008E18C0008E18D0008F8
:10013000E18D0008E18D0008E18D0008E18D0008E7
:10014000E18D0008E18D0008E18D00086580000860
:10015000E18D0008E18D0008E18D0008E18D0008C7
:10016000E18D0008E18D0008E18D0008E18D0008B7
:10017000E18D0008E18D0008E18D0008000000001D
:10018000E18D0008E18D0008E18D0008E18D000897
:10019000E18D0008E18D0008E18D0008E18D000887
:0C01A000E18D0008E18D0008E18D0008F1
:1001B000034613F8012B002AFBD1181A01387047A7
:1001C00010B5054C227832B9044B13B10448AFF393
:1001D00000800123237010BD3C4700200000000078
:1001E000D890000808B5034B1BB103490348AFF38F
:1001F000008008BD0000000040470020D8900008A3
:1002000010B50446074B1868074BA3FB0030800964
:1002100000F02AFA002221464FF0FF3000F0E4F906
:10022000002010BDB8080020D34D621008B50B4B5C
:100230001A6842F400721A601A6842F480621A6006
:100240001A6842F480721A60032000F0BBF90F2094
:10025000FFF7D6FF07F0B0FD002008BD003C0240CC
:10026000024A136801331360704700BF64470020DF
:10027000014B1868704700BF6447002030B583B059
:100280000190FFF7F5FF0546019CB4F1FF3F00D058
:100290000134FFF7EDFF401BA042FAD303B030BD9D
:1002A0004C4B5A6822F440325A605A6841680A43FB
:1002B0005A600268536823F480735360026853687D
:1002C000016943EA012353600268536823F04073D5
:1002D00053600268536881680B43536002689368F7
:1002E00023F40063936002689368C1680B439360D2
:1002F000826A394B9A425BD00268936823F070633C
:10030000936002689368816A0B4393600268936804
:1003100023F04053936002689368C16A0B43936073
:100320000268936823F0020393600268936881690E
:1003300043EA41039360036A002B44D00268536888
:1003400043F4006353600268536823F460435360CE
:10035000436A013B4FF4604292FAA2F2B2FA82F28F
:10036000934001684A6813434B600268D36A23F4E0
:100370007003D3620168CB6AC269013A43EA02534F
:10038000CB620268936823F40073936002689368F9
:10039000016B43EA412393600268936823F480630E
:1003A000936002689368416943EA812393607047D0
:1003B0000268936823F0706393600268936823F087
:1003C00040539360ACE70268536823F400635360C2
:1003D000CBE700BF002301400100000F30B310B590
:1003E0000446036C43B1236C13F0100F0AD00120B4
:1003F000002384F83C3010BD436480F83C3007F0A3
:100400000BFDF0E7236C23F4885323F0020343F041
:10041000020323642046FFF743FF00206064236C3F
:1004200023F0030343F001032364E1E70120704755
:1004300030B482B00023019390F83C30012B00F0DF
:10044000B480012380F83C300B68092B3ED9056845
:10045000EA689BB203EB43031E3B072404FA03F351
:1004600022EA0303EB600568EA688C680B8803EBFB
:1004700043031E3B04FA03F31343EB604B68062B64
:100480003AD805686A6B03EB8303053B1F2404FA23
:1004900003F322EA03036B6305686A6B4B6803EBA3
:1004A0008303053B0C8804FA03F313436B63026870
:1004B0003F4B9A4250D002683D4B9A4255D00023A0
:1004C00080F83C30184602B030BC704705682A6995
:1004D0009BB203EB4303072404FA03F322EA03036A
:1004E0002B6105682A698C680B8803EB430304FAC7
:1004F00003F313432B61C1E70C2B16D805682A6B55
:1005000003EB8303233B1F2404FA03F322EA0303D0
:100510002B6305682A6B4B6803EB8303233B0C8832
:1005200004FA03F313432B63C1E70568EA6A03EB9C
:100530008303413B1F2404FA03F322EA0303EB6223
:100540000568EA6A4B6803EB8303413B0C8804FAB5
:1005500003F31343EB62AAE70B68122BABD1154AE6
:10056000536843F480035360A5E70B68124A934233
:1005700001D0112BA3D10F4A536843F400035360F9
:100580000A680D4B9A429AD10C4B1B680C4AA2FB8D
:1005900003239B0C03EB83035A000192019B002B66
:1005A0008DD0019B013B0193F8E702208BE700BF50
:1005B000002001400023014012000010B808002074
:1005C00083DE1B43074AD36823F4E0631B041B0C40
:1005D000000200F4E060184340F0BF6040F40030D7
:1005E000D060704700ED00E030B4174BDB68C3F318
:1005F0000223C3F10704042C28BF04241D1D062D6B
:1006000001D9033B00E000234FF0FF3505FA04F465
:1006100021EA0401994005FA03F322EA030319438E
:10062000002809DB0901C9B200F1604000F5614012
:1006300080F8001330BC704700F00F000901C9B208
:10064000024B1954F6E700BF00ED00E014ED00E0A6
:1006500000F01F02400901239340024A42F8203073
:10066000704700BF00E100E00138B0F1807F0AD29E
:10067000064B5860064AF02182F82310002098604B
:1006800007221A6070470120704700BF10E000E0A9
:1006900000ED00E0042805D0054A136823F00403A8
:1006A00013607047024A136843F0040313607047F5
:1006B00010E000E030B405682C6824F480242C603D
:1006C000046863608368402B05D003689960036801
:1006D000DA6030BC704703689A600368D960F8E755
:1006E00010B40368D9B210390C4AA2FB01421209B6
:1006F0000B4CA25CC2655F2909D923F47F7323F0F8
:10070000030304338365806D5DF8044B704723F465
:100710007F7323F003038365F5E700BFABAAAAAAA2
:10072000F0900008836A826992B9012B0AD01BB14C
:10073000022B01D000207047C36A13F0807F28D1BC
:1007400000207047C36AB3F1C07F24D000207047F7
:10075000B2F5005F09D0022B25D9032B25D1C36A3E
:1007600013F0807F23D100207047032B03D8DFE8EC
:1007700003F01404140A00207047C36A13F0807F4A
:100780000DD100207047C36AB3F1C07F09D00020AB
:1007900070470120704701207047012070470120F9
:1007A00070470120704701207047002070470120EA
:1007B0007047000070B50446FFF75AFD002C5BD06F
:1007C0000546002384F83430022384F8353022684B
:1007D000136823F00103136023681A6812F0010FF5
:1007E0000AD0FFF745FD401B0528F5D92023636596
:1007F000032084F8350070BD1A68204810406168F5
:10080000A2680A43E1680A4321690A4361690A430D
:10081000A1690A43E1690A43216A0A430243616A02
:1008200004291ED01A602668756925F00705636AD9
:100830001D43042B07D1A36A1D43E36A1BB1204665
:10084000FFF770FF90B975612046FFF749FFE26D31
:100850003F239340836000206065012384F8353096
:10086000C9E7E16A206B01430A43DBE74023636584
:10087000012084F83500BEE70120BCE73F8010F07E
:1008800030B338B5044690F83530DBB2022B21D0B6
:100890000268136823F001031360036800251D60DC
:1008A00003685D6003689D600368DD6003681D6127
:1008B000036821225A61FFF713FFE26D3F23934043
:1008C0008360656584F8355084F83450284638BD17
:1008D000012070470220FAE738B590F83440012C27
:1008E0001CD0012480F8344090F83540E4B2012C4B
:1008F00004D0002380F83430022038BD05460220A1
:1009000085F8350000246C652846FFF7D3FE2A6879
:10091000136843F0010313602046EEE70220ECE782
:1009200038B5856D90F83440012C31D0012480F821
:10093000344090F83540E4B2012C04D0002380F814
:100940003430022038BD0446022084F835000020EF
:1009500060652046FFF7AEFEE26D3F239340AB603B
:100960002268136843F0160313602268536943F04A
:1009700080035361236C23B12268136843F008039A
:1009800013602268136843F0010313600020D9E765
:100990000220D7E7F0B583B0044600230193724BE1
:1009A0001D68724BA3FB0535AD0A876D3E68C26DAD
:1009B00008239340334210D003681A6812F0040FE2
:1009C0000BD01A6822F004021A60C26D082393400B
:1009D000BB60436D43F001034365E26D644B93409C
:1009E000334209D02268526912F0800F04D0BB60F4
:1009F000636D43F002036365E26D5E4B93403342E7
:100A000009D02268126812F0020F04D0BB60636D37
:100A100043F004036365E26D10239340334224D016
:100A20002268126812F0080F1FD0BB6023681A6892
:100A300012F4802F0DD01B6813F4002F04D1236C07
:100A40009BB12046984710E0A36C73B120469847AD
:100A50000BE01A6812F4807F03D11A6822F00802B2
:100A60001A60236C0BB120469847E26D2023934017
:100A7000334255D02268126812F0100F50D0BB607C
:100A800094F83530DBB2052B0ED023681A6812F4C7
:100A9000802F33D01B6813F4002F2AD1636C002BF6
:100AA0003ED0204698473BE02268136823F01603A7
:100AB00013602268536923F080035361236CA3B150
:100AC0002268136823F008031360E26D3F2393400C
:100AD000BB60002384F83430012384F83530236D63
:100AE000002B3FD0204698473CE0A36C002BE7D179
:100AF000EBE7E36BA3B12046984711E01A6812F4C4
:100B0000807F09D11A6822F010021A60002384F84D
:100B10003430012384F83530E36B0BB1204698471D
:100B2000636DFBB1636D13F0010F17D0052384F8DB
:100B300035302268136823F001031360019B0133F1
:100B40000193AB4204D823681B6813F0010FF5D161
:100B5000002384F83430012384F83530E36C0BB182
:100B60002046984703B0F0BDB8080020B5814E1B61
:100B700001008000040080005079137943EA0023CB
:100B800007480B50D07893781B0443EA00635078F1
:100B900043EA002312781343024A8B50704700BF88
:100BA000408002404480024070B59EB0044629B1A6
:100BB0004FF40063C3604FF480438360E369002B0C
:100BC0006AD14FF48063079321680B68394A1A4051
:100BD000A368E06803430798034343F40073134397
:100BE0000B6023681D680120FFF748FB23681D6028
:100BF000236840225A6023685D680120FFF73EFBAE
:100C000023685D60236800259D602368DD6022689D
:100C1000936923F0BE031B041B0C43F08003936114
:100C200023689E690120FFF729FB23689E612368E2
:100C3000DD612368DD690120FFF720FB2368DD61AA
:100C4000226841F2180551591B4B0B4043F00873C1
:100C500043F00403535123685E590120FFF70EFB54
:100C600023685E51236803F58053144A1A60236891
:100C700003F580531D680120FFF700FB236803F58F
:100C800080531D60A369012B09D0626900212046B1
:100C9000FFF772FF1EB070BD0023079394E7216831
:100CA00041F21C028B5843F4803343F040038B50D5
:100CB000EBE700BF0F8120FF233FDEF88020C10259
:100CC000F8B590F84430DBB2822B33D01646054697
:100CD000822380F844300268136903F01C03048AFD
:100CE000E402A4B22343890101F4F8641C4344F0F4
:100CF00001041461FFF7BCFA074614F0010F10D08D
:100D0000FFF7B6FAC01BB0F5803F02D22B681C6912
:100D1000F3E7012385F84430002385F845300320AC
:100D200007E02B685B699BB23360012385F8443090
:100D30000020F8BD0220FCE790F84430DBB2422BE3
:100D400032D070B50546422380F84430006803690C
:100D500003F01C032C8AE402A4B22343890101F4AA
:100D6000F8641C4344F0030492B242612B681C6196
:100D7000FFF77EFA064614F0010F10D0FFF778FA5D
:100D8000801BB0F5803F02D22B681C69F3E701237A
:100D900085F84430002385F84530032003E0012323
:100DA00085F84430002070BD0220704770B582B0D5
:100DB00000230193002800F00E81044690F844308F
:100DC000002B34D000230093844B5A6C42F48042B1
:100DD0005A645B6C03F480430093009B804B5A6819
:100DE00022F400025A605A68216A0A435A60236852
:100DF00003F580531A6842F001021A60FFF738FACF
:100E00000546236803F58052126812F0010F13D0D3
:100E1000FFF72EFA401BB0F5FA7FF2D9032584F8CC
:100E20004450002384F84530284602B070BD80F855
:100E3000453007F031F8C5E71D6925F01C0501F0C4
:100E400079FC684B0344684A934255D845F008053D
:100E500023681D614FF4004200212046FFF76CFF1C
:100E60000546002860D1FF20FFF708FA6368002BD1
:100E700000F09180FFF7FCF9064601AA0121204607
:100E8000FFF71EFFFFF7F4F9801B41F28833984209
:100E900052D8019B13F0040FEFD04FF48052002181
:100EA0002046FFF749FF002852D1FFF7E1F9064637
:100EB00001AA01212046FFF703FFFFF7D9F9801BA4
:100EC00041F2883398424BD8019B13F0200FEFD0AA
:100ED00001AA10212046FFF7F3FE00284CD1019B08
:100EE00013F0040F50D04FF40062E26013F0020FD1
:100EF0004DD00023A3605EE03C4B03443C4A934248
:100F000002D845F00C05A3E73A4B03443A4A934212
:100F10009ED93A4B03443A4A934202D845F004051D
:100F200096E745F0100593E701212046FFF73CFEC8
:100F3000012584F8445077E701212046FFF734FE6D
:100F4000012384F84430002384F8453003256BE7FF
:100F500001212046FFF728FE012584F8445063E76D
:100F600001212046FFF720FE012384F844300023AE
:100F700084F84530032557E701212046FFF714FE8A
:100F8000012584F844504FE70022E260AEE74FF4B9
:100F90008043A3600FE0E268C2F3CF02A368C3F30B
:100FA0004F031A4300212046FFF7C6FE58B940F60A
:100FB000FF70FFF763F900212046FFF7F5FD0123DD
:100FC00084F8443030E701212046FFF7EDFD01258C
:100FD00084F8445028E7012526E700BF0038024086
:100FE0000038014000D3CEFEBFE1E40040F1E9FD4E
:100FF0003F787D0100796CFCFF596202001F0AFAFC
:101000007FF0FA0200230F2B00F2E280F0B482B0EE
:1010100039E0092200E00022B2403A4302356D4E29
:1010200046F825206C4A1568E24302EA05064F6837
:1010300017F4803F01D044EA0506674D2E606D68C5
:1010400002EA05064F6817F4003F01D044EA05069E
:10105000614D6E60AD6802EA05064F6817F4801FA7
:1010600001D044EA05065C4DAE60ED682A404E684A
:1010700016F4001F01D044EA0502574CE260013328
:101080000F2B00F2A28001229A400C681440A24269
:10109000F5D14D68022D01D0122D10D1DE08083691
:1010A00050F826C003F00705AF000F25BD402CEA1D
:1010B000050C0D69BD4045EA0C0540F82650066850
:1010C0005F000325BD40ED4305EA060C4E6806F0BF
:1010D0000306BE4046EA0C0606604E6806F1FF3C79
:1010E000BCF1010F03D9112E01D0122E10D1866848
:1010F00005EA060CCE68BE4046EA0C0686604668E5
:1011000026EA02024E68C6F300169E401643466069
:10111000C26815408A68BA402A43C2604A6812F021
:10112000805FACD0002201922C4A556C45F480457A
:101130005564526C02F480420192019A9D08AE1CE3
:10114000244A52F8267003F0030296000F22B240A0
:1011500027EA0207224A90423FF45DAF02F580621F
:10116000904222D002F58062904220D002F5806247
:1011700090421ED002F5806290421CD002F580623F
:1011800090421AD002F58062904218D002F5806237
:10119000904216D002F58062904214D002F580622F
:1011A00090423FF436AF0A2236E7012234E70222AA
:1011B00032E7032230E704222EE705222CE706223D
:1011C0002AE7072228E7082226E702B0F0BC70478A
:1011D000704700BF00380140003C01400038024029
:1011E000000002400369194201D00120704700202D
:1011F00070470AB181617047090481617047436992
:1012000059404161704703685A6912F4806F01D1F7
:10121000002070476FF480625A6104230364002346
:101220000363202280F83D2080F83C300120704785
:10123000F8B506460C4617461D461EE02DB1FFF7D1
:1012400017F8069BC01AA84217D90023336320223F
:1012500086F83D2086F83E3086F83C3003201AE0C0
:1012600033689B6924EA03039BB2B3FA83F35B09F7
:101270009F420FD1B5F1FF3FE0D1C4F30743012BEB
:10128000EED133685B6924EA03039BB2B3FA83F3BC
:101290005B09EDE70020F8BDF8B504460D4616469B
:1012A0001F4632E01A6842F400721A6023686FF435
:1012B00080625A610423236400232363202284F87C
:1012C0003D2084F83C3001202DE026B1FEF7D0FF10
:1012D000C01BB04219D900232363202284F83D208B
:1012E00084F83C3003201EE023689B6925EA030351
:1012F0009BB2003318BF0123A3B123685A6912F4CB
:10130000806FCFD1B6F1FF3FDFD1C5F30743012B8B
:10131000EAD123685B6925EA03039BB2003318BF57
:101320000123E9E70020F8BD70B504460D461646D6
:1013300023685B6913F0800F19D12046FFF763FF24
:10134000B8B9B5F1FF3FF3D025B1FEF791FF801B8F
:10135000A842EDD9236C43F02003236400232363C8
:10136000202284F83D2084F83C30032000E0002057
:1013700070BD0120FCE700002DE9F04184B0044677
:101380000E46174698460B9D0268136843F4807317
:10139000136000950A9B00224FF00111FFF748FFF0
:1013A00000284DD1236806F0FE061E612B460A9ADE
:1013B00026492046FFF770FF30B1236C042B01D083
:1013C00003233EE001233CE00023039323685A6992
:1013D00003929B690393039B2A460A992046FFF7D1
:1013E000A3FF034658B1236C042B01D0032328E04C
:1013F0002268136843F400731360012321E0B8F1FD
:10140000010F03D12268FFB217611AE023683A0A7C
:101410001A612A460A992046FFF786FF034658B10B
:10142000236C042B01D003230BE02268136843F4E0
:1014300000731360012304E02268FFB2176100E02B
:101440000323184604B0BDE8F08100BF020001008C
:1014500070B504460D46164623685B6913F0040F09
:1014600019D12046FFF7CFFEB8B9B5F1FF3FF3D051
:1014700025B1FEF7FDFE801BA842EDD9236C43F099
:101480002003236400232363202284F83D2084F872
:101490003C30032000E0002070BD0120FCE700008C
:1014A000002800F0828010B5044690F83D30002BF3
:1014B00041D0242384F83D302268136823F00103CF
:1014C000136001F03DF93A4BA3FB00239B0C22680B
:1014D00053606168374A914232D8013322681362FF
:1014E0006368344A934235D85B00B0FBF3F040F6B2
:1014F000FC73184200D104202368D861E369216A93
:1015000022680B4313602369E16822680B439360F0
:101510006369A16922680B43D3602268136843F0B2
:101520000103136000202064202384F83D302063F1
:1015300084F83E0010BD80F83C3006F00FFDB8E79F
:101540004FF4967202FB03F31B4AA2FB03239B0991
:101550000133C3E7A16889B903EB4302B0FBF2F2A0
:10156000C2F30B02B2FA82F25209E2B991B903EB6B
:101570004303B0FBF3F040F40040BDE703EB83020C
:1015800002EB8202B0FBF2F2C2F30B02B2FA82F279
:101590005209EAE703EB830303EB8303B0FBF3F0A9
:1015A00040F44040A8E70120A6E70120704700BFB3
:1015B00083DE1B43A0860100D34D62102DE9F0416C
:1015C00082B004460E4617469846FEF751FE94F840
:1015D0003D30DBB2202B04D00223184602B0BDE818
:1015E000F081054600901923012251492046FFF75A
:1015F0001FFE002840F0978094F83C30012B00F04B
:101600009480012384F83C3023681A6812F0010F9B
:1016100003D11A6842F001021A602268136823F4A9
:1016200000631360212384F83D30402384F83E306A
:1016300000232364089B6362BDF8243063853D4B1F
:10164000E362638D238501950A9B009343463A46E6
:1016500031462046FFF790FEC0B1236C042B04D026
:10166000002384F83C300323B7E7002384F83C30A0
:101670000123B2E7236C042B01D00323ADE72268DA
:10168000136843F4007313600123A6E7238D002B36
:1016900028D02A460A992046FFF746FE0028E9D1BD
:1016A000636A5A1C626222681B781361238D013BB6
:1016B0009BB22385628D013A92B26285226851699C
:1016C00011F0040FE2D0002BE0D0636A591C616274
:1016D0001B781361238D013B2385638D013B9BB2F6
:1016E0006385D3E72A460A992046FFF7B1FE0346F1
:1016F00058B1236C042B01D003236EE722681368D2
:1017000043F400731360012367E721680A6842F419
:1017100000720A60202284F83D20002284F83E20D6
:1017200084F83C2059E7022357E7022355E700BF1E
:10173000020010000000FFFF2DE9F04383B00746D0
:101740000D46D0F80080CA00521A93000344DE6CA4
:101750001A6DB61A1B6C9E4200D91E4606F103098B
:101760004FEA990915E006F103094FEA9909EB00E0
:101770005B1B9C003C44616C3B7C0093B3B2EAB2BF
:10178000404601F057FF636C33446364236D334478
:101790002365414608EB451303F510639B699BB233
:1017A0004B4512D9EA00521B93003B441A6DDB6C87
:1017B0009A420AD24BB19E1AC5EBC50293003B4434
:1017C0001B6C9E42CFD91E46CDE73EB90123AB40EC
:1017D000D1F8345825EA0305C1F83458002003B085
:1017E000BDE8F08300286BD0F0B58BB0044603232E
:1017F00080F8B93306F07AFC206801F097FC2546A2
:1018000055F8107B6E460FCD0FC60FCD0FC695E86D
:10181000030086E80300231D0ECB384601F042FC8E
:101820000021206801F088FC002210E0D100891A14
:101830008B002344012183F8391083F83820DA879C
:10184000002183F83B1019645964D96401320E2ACF
:10185000ECD9002218E0D100891A8B002344002122
:1018600083F8F91183F8F821DA8783F8FB11C3F8BC
:101870000012C3F80412C3F80C12236802F14000EE
:1018800003EB8003596001320E2AE4D9254655F84E
:10189000107B6E460FCD0FC60FCD0FC695E8030027
:1018A00086E80300231D0ECB384601F089FC012396
:1018B00084F8B933206802F09AF800200BB0F0BD2C
:1018C0000120704790F8B833012B0ED010B50446B4
:1018D000012380F8B833006802F07DF8206801F039
:1018E0001FFC002084F8B80310BD022070470000E0
:1018F0002DE9F04704460668304602F0B3F808B117
:10190000BDE8F0870746206802F07DF80028F7D090
:10191000206802F078F810F0020F04D022685369B2
:1019200003F002035361206802F06DF810F4002FF9
:1019300075D13D46206802F066F810F4802F40F023
:10194000D280206802F05FF80028C0F23E81206853
:1019500002F059F810F4006F0AD0D6F8083813F0E6
:10196000010F40F041812268536903F40063536121
:10197000206802F048F810F4805F40F03981206858
:1019800002F041F810F4005F40F08281206802F01C
:101990003AF810F0100F14D02268936923F0100366
:1019A0009361376A07F00F08C7F34343022B00F037
:1019B0000382062B00F021822268936943F0100312
:1019C0009361206802F01FF810F0080F40F02982A0
:1019D000206802F018F810F4801F40F02B82206875
:1019E00002F011F810F4001F40F02E82206802F07F
:1019F0000AF810F0804F40F03182206802F003F8BE
:101A000010F0040F3FF47CAF23685D6815F0040FFD
:101A100040F02D82226853682B43536070E72068A2
:101A200001F0F5FF80463D4621E0E900491B8A00B0
:101A30002244D2F800121B69C3F31203C91AC2F878
:101A40001012D2F80012D2F804320B44C2F8043259
:101A500028E019F0080F3DD119F0100F04D006EB63
:101A600045131022C3F8082B01354FEA5808B8F186
:101A7000000F3FF45FAF18F0010FF5D05FFA85FA61
:101A80005146206801F0D3FF814610F0010FE0D0ED
:101A900006EB45130122C3F8082B03F530632269D6
:101AA000012AC2D05146204606F066FB2369012B6D
:101AB000CFD1002DCDD1C5EBC50293002344D3F87F
:101AC0000C32002BC5D104F56F720121206801F0A2
:101AD000E9FFBEE7204606F047FB06EB4513082268
:101AE000C3F8082BB8E7206801F099FF80463D460F
:101AF0002EE0EA00521B93002344196C5A6C0A44EE
:101B00005A6446E019F0080F04D006EB451308228A
:101B1000C3F8082919F0100F04D006EB4513102262
:101B2000C3F8082919F0400F04D006EB45134022F2
:101B3000C3F8082919F0020F04D006EB451302225E
:101B4000C3F8082919F0800F3AD101354FEA580837
:101B5000B8F1000F3FF4F5AE18F0010FF5D05FFAC1
:101B600085FA5146206801F06BFF814610F0010FA5
:101B7000C8D0012202FA05F0D6F8343823EA00036F
:101B8000C6F8343806EB4513C3F808292369934295
:101B9000AFD05146204606F0FBFA2369012BB1D1A4
:101BA000002DAFD1C5EBC50293002344DB6C002BA5
:101BB000A8D104F56F720121206801F073FFA1E73D
:101BC00029462046FFF7B8FDBFE7D6F8043823F0D2
:101BD0000103C6F80438204606F014FB2268536956
:101BE00003F000435361B2E6204606F0F3FABAE68A
:101BF000B14606F50068D8F8043023F00103C8F8B0
:101C000004301021206801F0ADFA6368BB4208D9A6
:101C100009EB4713FF22C3F80829C3F8082B013743
:101C2000F3E74FF0FF33C8F81830D8F81C3043F012
:101C30000113C8F81C30236BEBB1D8F8843043F0A3
:101C40000B03C8F88430D8F8443043F00B03C8F8CD
:101C50004430D6F8003823F4FE63C6F8003804F5A3
:101C60006F72217C206801F01DFF2268536903F424
:101C70008053536183E6D8F8143043F00B03C8F85F
:101C80001430D8F8103043F00B03C8F81030E0E7F8
:101C9000206801F0EBFE2268D36823F47053D36010
:101CA000206801F035FB90B90023E3604FF4007326
:101CB00063612268D36843F41053D360204606F072
:101CC00078FA2268536903F4005353615EE60323F4
:101CD000E3604023636100F02DFD674B0344674AD6
:101CE000934205D82268D36843F47053D360E5E784
:101CF000634B0344634A934205D82268D36843F494
:101D00006053D360DAE7A0F57403A3F510535E4A7D
:101D1000934205D82268D36843F45053D360CDE78B
:101D2000A0F18373A3F5E743584A934205D822688C
:101D3000D36843F44053D360C0E7554B0344554A3E
:101D4000934205D82268D36843F43053D360B5E793
:101D5000514B0344514A934205D82268D36843F457
:101D60002053D360AAE74E4B03444E4A934205D812
:101D70002268D36843F41053D3609FE7A0F1B77390
:101D8000A3F55853484A934205D82268D36843F4D0
:101D90000053D36092E7454B0344454A934205D82C
:101DA0002268D36843F4E053D36087E72268D3689E
:101DB00043F4C053D36081E747F6F0731F423FF40A
:101DC000FBAD3F094FEAC80AAAEB08034FEA8309B3
:101DD000A144C7F30A02D9F80412304601F070FD9D
:101DE000C7F30A07D9F804323B44C9F80432D9F8DA
:101DF00010321F44C9F81072DEE5082204F56F7135
:101E0000304601F05DFDC7F30A174FEAC803A3EBA4
:101E100008018A002244D2F810321F44C2F810721E
:101E2000CAE5204606F0BFF92268536903F00803AB
:101E30005361CDE5E9B2204606F0F0F92268536916
:101E400003F480135361CAE5E9B2204606F0E0F9D5
:101E50002268536903F400135361C7E5204606F076
:101E6000E3F92268536903F080435361C5E52046D6
:101E700006F0E0F9CEE500BF405327FFFF340C0029
:101E8000401E1BFF3F420F007F4F12001FD6130062
:101E900060B6E5FE5FE3160000D3CEFE3F771B0081
:101EA000C05BB3FEBF9121001F753800E05459FE9E
:101EB000DF9C410090F8B833012B0BD010B50446DD
:101EC000012380F8B833006801F075FD002084F824
:101ED000B80310BD0220704770B54DB2002D22DB53
:101EE00001F07F06C6EBC606B40004F5FC7404449A
:101EF00001F07F012170ED0F6570A260E37005B104
:101F0000E180022B17D090F8B833012B16D005468C
:101F1000012380F8B8332146006801F019FA002047
:101F200085F8B80370BD01F07F06C6EBC606B400A5
:101F300038340444DCE700232371E4E70220F1E7AE
:101F400010B54AB2002A1CDB01F07F04C4EBC404C4
:101F5000A30003F5FC73034401F07F011970D20F55
:101F60005A7090F8B823012A13D00446012280F851
:101F7000B8231946006801F035FA002084F8B80348
:101F800010BD01F07F04C4EBC404A3003833034444
:101F9000E2E70220F4E770B501F07F06F500A91B27
:101FA0008C0004F5FC740119AD1BAC000444C4F8AA
:101FB0000422C4F80C320023C4F8103284F8F9313A
:101FC00084F8F8610369012B06D066B9DAB20068BB
:101FD00001F080FA002070BDC6EBC605AC000444D9
:101FE000C4F80822F1E7DAB2006801F037FBF1E744
:101FF00070B501F07F06F500A91B8C00383401197B
:10200000AD1BAC0004446264E36400232365012338
:1020100084F8393084F838600369012B06D05EB942
:10202000DAB2006801F056FA002070BDC6EBC605B2
:10203000AC000444A264F2E7DAB2006801F00EFBDF
:10204000F2E738B54AB2002A1DDBC1EBC104A30098
:1020500003F5FC73034401249C7001F07F051D709F
:10206000D20F5A7090F8B823A2421BD00446012226
:1020700080F8B8231946006801F036FC5DB10020F5
:1020800084F8B80338BD01F07F04C4EBC404A30096
:1020900038330344DFE704F56F72217C206801F0D8
:1020A00001FDECE70220EDE710B54AB2002A1CDB87
:1020B000C1EBC104A30003F5FC73034400249C702E
:1020C00001F07F011970D20F5A7090F8B823012ADD
:1020D00013D00446012280F8B8231946006801F0A5
:1020E00035FC002084F8B80310BD01F07F04C4EB78
:1020F000C404A30038330344E0E70220F4E730B41B
:102100000468606A29B940EA0240A062002030BC3D
:1021100070470D46A36A00EB13400023691E8B42F3
:1021200009DA03F1400104EB8101496800EB114039
:102130000133DBB2F2E740EA024005F13F0104EB74
:1021400081014860E2E7036859620020704700009F
:1021500030B583B00446036813F0010F3BD0AD4B9C
:102160009B6803F00C03042B2CD0AA4B9B6803F054
:102170000C03082B21D06368B3F5803F4FD0B3F533
:10218000A02F52D0A34B1A6822F480321A601A682A
:1021900022F480221A606368002B50D0FEF768F8A2
:1021A00005469C4B1B6813F4003F14D1FEF760F802
:1021B000401B6428F5D9032099E1964B5B6813F422
:1021C000800FD8D0934B1B6813F4003F03D0636893
:1021D000002B00F08781236813F0020F5AD08D4B3B
:1021E0009B6813F00C0F3ED08A4B9B6803F00C03E6
:1021F000082B33D0E368002B73D0874B01221A6081
:10220000FEF736F80546834B1B6813F0020F59D1D1
:10221000FEF72EF8401B0228F5D9032067E17D4A1E
:10222000136843F480331360B5E77A4B1A6842F4BD
:1022300080221A601A6842F480321A60ABE7FEF717
:1022400017F80546734B1B6813F4003FC3D0FEF725
:102250000FF8401B6428F5D9032048E16D4B5B68FB
:1022600013F4800FC6D16B4B1B6813F0020F03D021
:10227000E368012B40F038816648036823F0F803D7
:102280002169F82292FAA2F2B2FA82F201FA02F27B
:1022900013430360236813F0080F46D0636993B3B8
:1022A0005E4B01221A60FDF7E3FF0546594B5B6F59
:1022B00013F0020F39D1FDF7DBFF401B0228F5D9DF
:1022C000032014E15348036823F0F8032169F8223E
:1022D00092FAA2F2B2FA82F201FA02F21343036016
:1022E000D8E74D4B00221A60FDF7C2FF0546494B67
:1022F0001B6813F0020FCDD0FDF7BAFF401B022878
:10230000F5D90320F3E0454B00221A60FDF7B0FF3A
:102310000546404B5B6F13F0020F06D0FDF7A8FF98
:10232000401B0228F5D90320E1E0236813F0040FD5
:102330001FD1A369002B00F0D980364A926802F0C1
:102340000C02082A00F0D580022B7FD0344B0022EB
:102350001A60FDF78DFF04462E4B1B6813F0007FBB
:1023600000F0BE80FDF784FF001B0228F4D9032093
:10237000BDE000230193274B1A6C42F080521A648F
:102380001B6C03F080530193019B264A136843F4AE
:1023900080731360FDF76CFF0546224B1B6813F436
:1023A000807F06D1FDF764FF401B0228F5D903208A
:1023B0009DE0A368012B1DD0052B21D0154B1A6F72
:1023C00022F001021A671A6F22F004021A67A3684A
:1023D00053B3FDF74DFF05460E4B1B6F13F0020F75
:1023E000A7D1FDF745FF401B41F288339842F3D94E
:1023F00003207CE0074A136F43F001031367E6E70D
:10240000044B1A6F42F004021A671A6F42F001027D
:102410001A67DCE70038024000004742800E47425E
:102420006000474200700040FDF722FF0546324B36
:102430001B6F13F0020F3FF47CAFFDF719FF401B39
:1024400041F288339842F2D9032050E02B4B00220E
:102450001A60FDF70DFF0546274B1B6813F0007F40
:1024600006D0FDF705FF401B0228F5D903203EE00A
:10247000E369226A1343616A47F6C07292FAA2F2D4
:10248000B2FA82F201FA02F21343A26A5208013A46
:102490004FF4403191FAA1F1B1FA81F18A4013432E
:1024A000E16A4FF0706292FAA2F2B2FA82F201FA95
:1024B00002F21343104A5360104B01221A60FDF7D9
:1024C000D7FE04460C4B1B6813F0007F06D1FDF7C6
:1024D000CFFE001B0228F5D9032008E0002006E00B
:1024E000002004E0012002E0012000E0002003B011
:1024F00030BD0120FBE700BF0038024060004742CA
:10250000214B9B6803F00C03042B38D0082B38D1E7
:102510001D4B586800F03F005B6813F4800F1ED01D
:102520001A4AB2FBF0F2184B586847F6C0731840CD
:1025300093FAA3F3B3FA83F3D84000FB02F0124BF3
:102540005B6803F440334FF4403292FAA2F2B2FADD
:1025500082F2D34001335B00B0FBF3F070470C4ACA
:10256000B2FBF0F2084B586847F6C073184093FA74
:10257000A3F3B3FA83F3D84000FB02F0DFE703488C
:1025800070470348704700BF0038024000127A00CD
:102590000024F400634B1B6803F00F038B4208D246
:1025A000CBB2604A1370136803F00F038B4240F004
:1025B000B28070B5036813F0020F06D05A4A9368D0
:1025C00023F0F0038468234393600D4604460368B8
:1025D00013F0010F64D04368012B26D09A1E012A04
:1025E0002AD9514A126812F0020F00F096804E4923
:1025F0008A6822F0030213438B60FDF739FE06461A
:102600006368012B1FD0022B2CD0032B39D0464BF3
:102610009B6813F00C0F43D0FDF72AFE801B41F29C
:1026200088339842F3D9032074E03F4A126812F4C9
:10263000003FDCD101206DE03B4A126812F0007FC0
:10264000D5D1012066E0384B9B6803F00C03042BC6
:1026500026D0FDF70DFE801B41F288339842F2D957
:10266000032057E0304B9B6803F00C03082B17D076
:10267000FDF7FEFD801B41F288339842F2D903201A
:1026800048E0294B9B6803F00C030C2B08D0FDF7A6
:10269000EFFD801B41F288339842F2D9032039E0E4
:1026A000204B1B6803F00F03AB4207D9EAB21D4B66
:1026B0001A701B6803F00F03AB4230D1236813F08C
:1026C000040F06D0184A936823F4E053E1680B43E3
:1026D0009360236813F0080F07D0134A936823F41C
:1026E0006043216943EAC1039360FFF709FF0E4B82
:1026F0009B6803F0F003F02292FAA2F2B2FA82F29F
:10270000D3400A4AD35CD840094B18600F20FDF72C
:1027100077FD002070BD012070470120FAE70120FD
:10272000F8E700BF003C02400038024068BA0008E9
:10273000B8080020014B1868704700BFB808002097
:1027400008B5FFF7F7FF074B9B6803F4E0534FF41E
:10275000E05292FAA2F2B2FA82F2D340024AD35C79
:10276000D84008BD0038024078BA000808B5FFF725
:10277000E1FF074B9B6803F460434FF4604292FA19
:10278000A2F2B2FA82F2D340024AD35CD84008BD2A
:102790000038024078BA000870B4036A23F00103DD
:1027A0000362036A4268846924F073040D6845EA91
:1027B000040623F002048B6823430C4DA84202D088
:1027C0000B4CA0420BD123F00803CD682B4323F020
:1027D000040322F440724D6915438A692A4342601A
:1027E00086614A684263036270BC70470000014022
:1027F0000004014030B4036A23F480730362036A67
:102800004268C46924F073040D682C4323F40073F8
:102810008D6843EA05230E4DA84203D005F5806577
:10282000A8420ED123F40063CD6843EA052323F4C4
:10283000806322F440524D6942EA05128D6942EAF2
:1028400005124260C4614A68C263036230BC7047CB
:102850000000014030B4036A23F480530362036A2A
:102860004468C26922F4E6420D6842EA052223F474
:1028700000538D6843EA0533094DA84203D005F59E
:102880008065A84204D124F480444D6944EA85144B
:102890004460C2614A680264036230BC704700BF92
:1028A00000000140022380F839300268136843F0C9
:1028B00001031360012380F839300020704770470E
:1028C000704770477047704710B5044603681A692F
:1028D00012F0020F11D0DA6812F0020F0DD06FF073
:1028E00002021A610123037603689B6913F0030F48
:1028F00070D0FFF7E6FF0023237623681A6912F0F1
:10290000040F12D0DA6812F0040F0ED06FF0040238
:102910001A610223237623689B6913F4407F5FD0FA
:102920002046FFF7CEFF0023237623681A6912F0B2
:10293000080F12D0DA6812F0080F0ED06FF00802FC
:102940001A61042323762368DB6913F0030F4ED04A
:102950002046FFF7B6FF0023237623681A6912F09A
:10296000100F12D0DA6812F0100F0ED06FF01002B4
:102970001A61082323762368DB6913F4407F3DD076
:102980002046FFF79EFF0023237623681A6912F082
:10299000010F03D0DA6812F0010F36D123681A69EB
:1029A00012F0800F03D0DA6812F0800F34D1236860
:1029B0001A6912F0400F03D0DA6812F0400F32D1DA
:1029C00023681A6912F0200F03D0DA6812F0200F82
:1029D00030D110BDFFF774FF2046FFF773FF8AE781
:1029E0002046FFF76DFF2046FFF76CFF9BE7204670
:1029F000FFF766FF2046FFF765FFACE72046FFF7CD
:102A00005FFF2046FFF75EFFBDE76FF001021A612E
:102A1000204606F075F9C1E76FF080021A61204682
:102A200000F057F9C3E76FF040021A612046FFF744
:102A30004AFFC5E76FF020021A61204600F048F90E
:102A4000C7E7000003682E4A904212D0B0F1804FD1
:102A50000FD0A2F57C4290420BD002F580629042EA
:102A600007D002F58062904203D002F5784290428E
:102A700003D123F070034A681343214A90422AD0BD
:102A8000B0F1804F27D0A2F57C42904223D002F5CE
:102A9000806290421FD002F5806290421BD002F506
:102AA0007842904217D002F57052904213D002F54E
:102AB000806290420FD002F5806290420BD0A2F566
:102AC0009832904207D002F58062904203D002F51E
:102AD0008062904203D123F44073CA6813430360B9
:102AE0008B68C3620B688362054B984203D003F581
:102AF0008063984201D10B690363012343617047EE
:102B000000000140B0B110B5044690F8393063B10F
:102B1000022384F83930214651F8040BFFF792FF65
:102B2000012384F83930002010BD80F83830FFF7D9
:102B3000C6FEEDE70120704730B4036A23F01003AE
:102B40000362036A4468826922F4E6420D6842EA3D
:102B5000052223F020038D6843EA05130E4DA84299
:102B600003D005F58065A8420ED123F08003CD681F
:102B700043EA051323F0400324F440644D6944EA1A
:102B800085048D6944EA8504446082614A688263F1
:102B9000036230BC704700BF0000014038B590F8B8
:102BA0003830012B66D00D460446012380F83830BA
:102BB000022380F839300C2A1AD8DFE802F007190E
:102BC0001919201919193419191947000068FFF744
:102BD000E3FD2268936943F00803936122689369D7
:102BE00023F0040393612268936929690B4393617D
:102BF000012384F83930002084F8380038BD00689B
:102C0000FFF79AFF2268936943F400639361226897
:102C1000936923F48063936122689369296943EA85
:102C200001239361E4E70068FFF7E4FD2268D369BC
:102C300043F00803D3612268D36923F00403D3610E
:102C40002268D36929690B43D361D1E70068FFF794
:102C500001FE2268D36943F40063D3612268D3691B
:102C600023F48063D3612268D369296943EA01238D
:102C7000D361BDE70220C1E710B4012303FA01F4D8
:102C8000036A23EA04030362036A8A40134303626C
:102C90005DF8044B7047000010B50446012200683F
:102CA000FFF7EAFF2368094A934203D002F58062E6
:102CB000934203D15A6C42F400425A64226813686A
:102CC00043F001031360002010BD00BF000001406D
:102CD000704770472DE9F843044601680A6922F4F9
:102CE0004052C36813430B610168CA6822F416425C
:102CF00022F00C0283680069034360690343E069C2
:102D000003431343CB6021684A6922F44072A369EC
:102D100013434B61E369B3F5004F60D02368B84AB1
:102D2000934200F0148102F58062934200F00F811B
:102D3000FFF706FD00EB800000EB80006568AD004A
:102D4000B0FBF5F5AF4FA7FB05356D092E01FFF779
:102D5000F7FC00EB800000EB80006568AD00B0FB85
:102D6000F5F9FFF7EDFC00EB800000EB80006568F3
:102D7000AD00B0FBF5F5A7FB05356D094FF0640814
:102D800008FB15952D013235A7FB05356D0905F0BA
:102D9000F0053544FFF7D4FC00EB800000EB800029
:102DA0006668B600B0FBF6F6FFF7CAFC00EB8000E1
:102DB00000EB800063689B00B0FBF3F0A7FB0030E2
:102DC000400908FB10684FEA081808F13208A7FB11
:102DD0000837C7F3431723682F449F600DE123682A
:102DE000874A93425BD002F58062934257D0FFF747
:102DF000A7FC00EB800000EB800065686D00B0FB75
:102E0000F5F5804FA7FB05356D092E01FFF798FCFE
:102E100000EB800000EB800065686D00B0FBF5F909
:102E2000FFF78EFC00EB800000EB800065686D0012
:102E3000B0FBF5F5A7FB05356D094FF0640808FBFD
:102E40001595ED003235A7FB05356D096D0005F4CC
:102E5000F8753544FFF774FC00EB800000EB800050
:102E600066687600B0FBF6F6FFF76AFC00EB8000C0
:102E700000EB800063685B00B0FBF3F3A7FB032368
:102E80005B0908FB13684FEAC80808F13208A7FB82
:102E90000837C7F3421723682F449F60ADE0FFF760
:102EA00065FC00EB800000EB800065686D00B0FB06
:102EB000F5F5544FA7FB05356D092E01FFF756FCBC
:102EC00000EB800000EB800065686D00B0FBF5F959
:102ED000FFF74CFC00EB800000EB800065686D00A4
:102EE000B0FBF5F5A7FB05356D094FF0640808FB4D
:102EF0001595ED003235A7FB05356D096D0005F41C
:102F0000F8753544FFF732FC00EB800000EB8000E1
:102F100066687600B0FBF6F6FFF728FC00EB800051
:102F200000EB800063685B00B0FBF3F3A7FB0323B7
:102F30005B0908FB13684FEAC80808F13208A7FBD1
:102F40000837C7F3421723682F449F6055E0FFF707
:102F50000DFC00EB800000EB80006568AD00B0FB6D
:102F6000F5F5284FA7FB05356D092E01FFF7FEFB90
:102F700000EB800000EB80006568AD00B0FBF5F968
:102F8000FFF7F4FB00EB800000EB80006568AD000C
:102F9000B0FBF5F5A7FB05356D094FF0640808FB9C
:102FA00015952D013235A7FB05356D0905F0F005A6
:102FB0003544FFF7DBFB00EB800000EB8000666828
:102FC000B600B0FBF6F6FFF7D1FB00EB800000EB9C
:102FD000800063689B00B0FBF3F0A7FB0030400962
:102FE00008FB10684FEA081808F13208A7FB0837F9
:102FF000C7F3431723682F449F60BDE8F88300BFE1
:10300000001001401F85EB5158B310B5044690F8ED
:1030100039300BB3242384F839302268D36823F481
:103020000053D3602046FFF755FE2268136923F44E
:10303000904313612268536923F02A035361226885
:10304000D36843F40053D3600020E063202384F866
:10305000393084F83A3010BD80F8383004F0CAFFB7
:10306000D8E7012070470000002301330C4A934247
:1030700011D80269002AF8DA036943F001030361F9
:1030800000230133064A934207D8026912F0010F68
:10309000F7D100207047032070470320704700BF1E
:1030A000400D030084B010B5044603A880E80E006C
:1030B000089B012B20D1A36B23F48033A363E36827
:1030C00023F4840323F04003E360E36823F4401314
:1030D000E3600F9B012B0AD02046FFF7C5FF069B3C
:1030E000012B14D00020BDE8104004B07047E36805
:1030F00043F48013E360EFE7E36843F04003E360E9
:103100002046FFF7B1FF4FF48033A363E7E7A368DE
:1031100043F00603A360A36843F02003A360E1E744
:10312000836843F00103836000207047836823F0C5
:10313000010383600020704708B5C36823F0C043D3
:10314000C360012905D041B9C36843F08043C3601F
:1031500003E0C36843F00053C3603220FDF78EF8EC
:10316000002008BD890141F02001016100230133E5
:10317000054A934205D8026912F0200FF7D10020CA
:1031800070470320704700BF400D03001023036108
:1031900000230133054A934205D8026912F0100F4B
:1031A000F7D1002070470320704700BF400D030097
:1031B000D0F800381943C0F800180020704700000C
:1031C00084B070B5044605A880E80E000F9BBBB91B
:1031D000A36B43F40013A36325460023C4F8003E09
:1031E00004F50066D4F80038C4F800380A9B012BB7
:1031F00010D1079B4BB900212046FFF7D9FF0DE006
:10320000A36B43F40023A363E6E701212046FFF705
:10321000CFFF03E003212046FFF7CAFF102120461D
:10322000FFF7A0FF2046FFF7B1FF00233361736172
:103230004FF0FF32B261F36108E04FF09040C2F806
:10324000000900220A61FF228A600133059A9A422E
:103250000BD905EB431202F51061D2F800090028E2
:10326000EBDB0020C2F80009EBE7002308E04FF099
:103270009040C2F8000B00220A61FF228A600133ED
:10328000059A9A420BD905EB431202F53061D2F848
:10329000000B0028EBDB0020C2F8000BEBE73369E2
:1032A00023F480733361089B012B1BD00022A261A1
:1032B0006FF0804262611BB9A36943F01003A36100
:1032C000A269114B1343A3610B9B1BB1A36943F08C
:1032D0000803A3610F9B012B0ED00020BDE87040B6
:1032E00004B07047094A3263326B42F4803242F0D4
:1032F00003023263326BD9E7A36943F0804343F0A2
:103300000403A361E9E700BF00383C8000018000AE
:10331000D0F8083800F5006013F0060F10D083686D
:1033200003F00603022B0DD0836803F00603062B7F
:103330000AD0836803F00603042B07D000207047EF
:103340000020704703207047032070470220704719
:1033500030B44B78012B22D0D0F81C380D780122E4
:10336000AA4043EA0243C0F81C380B7800EB431034
:10337000D0F8003B13F4004F0ED1D0F8003B8A6820
:10338000C2F30A02C97842EA8142134343F08053F0
:1033900043F40043C0F8003B002030BC7047D0F835
:1033A0001C280D78AB409BB21343C0F81C380C7836
:1033B00000EB4410D0F8003913F4004FECD1D0F8F2
:1033C00000398A68C2F30A02C97842EA814242EAB5
:1033D0008452134343F0805343F40043C0F8003950
:1033E000DAE7000038B54B78012B36D00B7804466D
:1033F00000EB4313D3F8002B22F40042C3F8002B58
:103400000B7800EB43134FF00062C3F8002B0B78EE
:1034100000EB43134FF08042C3F8002B002201322F
:103420002B4B9A4252D80B7804EB431303F53063CD
:103430009B6813F0100FF2D1D0F8043843F4806386
:10344000C0F80438D0F81C38097801228A4023EAF1
:103450000243C0F81C38002038BD0B78044600EB4E
:103460004313D3F8002922F40042C3F800290B7853
:1034700000EB43134FF00062C3F800290B7800EB18
:1034800043134FF08042C3F8002900220132104B51
:103490009A4219D80B7804EB431303F510639B6829
:1034A00013F0804FF2D10D4604461021FFF75AFE6B
:1034B000D4F81C28297801238B409BB222EA03030D
:1034C000C4F81C380020C7E70320C5E70320C3E782
:1034D000400D030030B44B78012B39D00B7800EB52
:1034E0004313D3F8104BE40CE404C3F8104B0B78EF
:1034F00000EB4313D3F8104B24F0FF5424F4C01412
:10350000C3F8104B4B690BB18B684B610B7800EB28
:103510004313D3F8104B44F40024C3F8104B0B783A
:1035200000EB4313D3F8104B8D68C5F312052C4301
:10353000C3F8104B012A76D00B7800EB4310D0F87B
:10354000003B43F00443C0F8003B002030BC704710
:103550004B699BBB0B7800EB4313D3F8104924F065
:10356000FF5424F4C014C3F810490B7800EB431344
:10357000D3F8104944F40024C3F810490B7800EB49
:103580004313D3F81049E40CE404C3F810490B7852
:1035900000EB4313D3F8004944F00444C3F8004956
:1035A000012A39D04B69002BCFD0D0F834380978B4
:1035B00001228A401343C0F83438C6E70B7800EB89
:1035C0004313D3F81049E40CE404C3F810490B7812
:1035D00000EB4313D3F8104924F0FF5424F4C01433
:1035E000C3F810494C698B689C4200D94B610B7839
:1035F00000EB4313D3F8104944F40024C3F81049F6
:103600000B7800EB4313D3F810494D69C5F312054D
:103610002C43C3F81049BAE70B7800EB43100B6951
:10362000C0F8143991E7CA680B7800EB4313C3F86C
:10363000142B81E770B49DF80C4064B903339E08E5
:10364000B44208D200EB023303F5805351F8045B17
:103650001D600134F4E7002070BC704770B582B083
:103660004B78012B3ED00B7800EB4313D3F8104B73
:10367000E40CE404C3F8104B0B7800EB4313D3F8CD
:10368000104B24F0FF5424F4C014C3F8104B4B69C2
:10369000002B40F0D3800B7800EB4313D3F8104B92
:1036A0008D68C5F312052C43C3F8104B0B7800EB63
:1036B0004313D3F8104B44F40024C3F8104B012AF1
:1036C00000F0DB80CB78012B00F0DE800B7800EB84
:1036D0004310D0F8003B43F00443C0F8003B002007
:1036E00002B070BD4B696BBB0B7800EB4313D3F892
:1036F000104924F0FF5424F4C014C3F810490B7887
:1037000000EB4313D3F8104944F40024C3F81049E4
:103710000B7800EB4313D3F81049E40CE404C3F82E
:103720001049012A54D0CB78012B57D04B69002B7C
:1037300054D0D0F834380E780124B4402343C0F874
:1037400034384BE00B7800EB4313D3F81049E40C0A
:10375000E404C3F810490B7800EB4313D3F8104985
:1037600024F0FF5424F4C014C3F810490C7800EB83
:103770004414D4F810594B698E683344013BB3FBB1
:10378000F6F34E4E06EAC3432B43C4F810390B78C8
:1037900000EB4313D3F810494D69C5F312052C43D0
:1037A000C3F81049CB78012BBBD10B7800EB431346
:1037B000D3F8104924F0C044C3F810490B7800EB4B
:1037C0004313D3F8104944F00054C3F81049A8E754
:1037D0000B7800EB43130C69C3F81449CB78012B29
:1037E00013D00B7800EB4313D3F8004944F00444A2
:1037F000C3F80049CB78012B7FF471AF00928B8A1C
:103800000A78C968FFF716FF69E7D0F8083813F49B
:10381000807F09D10B7800EB4313D3F8004944F0C3
:103820000054C3F80049DCE70B7800EB4313D3F8EE
:10383000004944F08054C3F80049D2E78C6823441F
:10384000013BB3FBF4F30C7800EB4414D4F8105BA9
:103850001A4E06EAC3463543C4F8105B0C7800EBF9
:103860004414D4F8106B8D689BB205FB03F3C3F3CB
:1038700012033343C4F8103B21E7CA680B7800EB0E
:103880004313C3F8142B1DE7D0F8083813F4807FD6
:1038900009D10B7800EB4313D3F8002B42F0005210
:1038A000C3F8002B12E70B7800EB4313D3F8002B7F
:1038B00042F08052C3F8002B08E700BF0000F81F59
:1038C00003329208002393420CD210B400F58054C6
:1038D000246841F8044B01339342F7D308465DF85E
:1038E000044B7047084670474B78012B17D00B7874
:1038F00000EB4313D3F8002B002A05DBD3F8002B91
:1039000022F08042C3F8002B0B7800EB4310D0F874
:10391000003B43F40013C0F8003B002070470B78D5
:1039200000EB4313D3F80029002A05DBD3F8002964
:1039300022F08042C3F800290B7800EB4310D0F846
:10394000003943F40013C0F80039E6E74B78012B47
:103950000FD00B7800EB4313D3F8002B22F40012A6
:10396000C3F8002BCB78023BDBB2012B19D9002026
:1039700070470B7800EB4313D3F8002922F40012B0
:10398000C3F80029CB78023BDBB2012BEFD80B78D0
:1039900000EB4310D0F8003943F08053C0F80039F1
:1039A000E5E70B7800EB4310D0F8003B43F0805381
:1039B000C0F8003BDBE7D0F8003823F4FE63C0F822
:1039C0000038D0F80038090101F4FE610B43C0F85B
:1039D00000380020704708B5D0F8043823F00203FF
:1039E000C0F804380320FCF749FC002008BD08B5E6
:1039F000D0F8043843F00203C0F804380320FCF781
:103A00003DFC002008BD4269806910407047D0F835
:103A1000183800F50060C0691840000C7047D0F8F5
:103A2000183800F50060C069184080B2704700EB9C
:103A30004111D1F8082B00F5006040691040704733
:103A400010B4D0F81048D0F83438CB40DB01DBB2EA
:103A5000234300EB411000F51060806818405DF8CA
:103A6000044B7047406900F001007047D0F80039FE
:103A700023F4FF6323F00703C0F8003900F5006367
:103A80009A6802F00602042A05D05A6842F480724D
:103A90005A6000207047D0F8002942F00302C0F8B5
:103AA0000029F2E710B40024C0F8104BD0F8104BF6
:103AB00044F40024C0F8104BD0F8104B44F0180424
:103AC000C0F8104BD0F8104B44F0C044C0F8104B75
:103AD000012903D000205DF8044B7047C0F8142B77
:103AE0004FF08023C0F8003BF4E70000222303805E
:103AF0000048704700000020D0F8183200201873EA
:103B0000704700000A23038000487047240000200B
:103B100010B5D0F818420B7813F0600325D0202B95
:103B20004FD14B78023B092B1BD8DFE803F0140977
:103B30001A1A1A1A1A1A0F058B782360002041E00E
:103B40000122214600F03FFC00203BE04B881B0A8D
:103B50006360002036E00122211D00F034FC0020CB
:103B600030E000F0DCF902202CE04B780A2B1DD06D
:103B70000B2B22D0062B01D0002023E04B881B0A00
:103B8000222B07D0212B0BD000210A4600F01BFC72
:103B9000002017E0CA884A2A28BF4A220A49F5E7C6
:103BA000CA88092A28BF09220849EFE7012204F13F
:103BB000080100F008FC002004E08B78A3600020DE
:103BC00000E0002010BD00BF300000207C0000207D
:103BD00010B50446812104F092FBD4F8180220B1FC
:103BE00005F034F90023C4F81832002010BD10B5D8
:103BF000044604230322812104F06DFB102005F00C
:103C00001DF9C4F8180218B100230373184610BD3B
:103C10000120FCE738B5D0F8185290F8FC41032C8D
:103C200001D0002038BD2B7B002BFAD113460A4669
:103C300001212973812104F0BDFBF2E798B108B599
:103C40000346D0F8140210B10020C3F8140209B1E1
:103C5000C3F810121846012380F8FC31027004F0FA
:103C6000EFFA002008BD0220704719B1C0F8141205
:103C7000002070470220704708B504F01BFB0020AD
:103C800008BD08B5D0F8143233B11B68984708B99D
:103C9000002008BD0220FCE70220FAE708B5D0F8B2
:103CA00014325B689847002008BD38B5044600F51B
:103CB0000275284600F01FF90123C4F8F431B4F866
:103CC0000E32C4F8F83194F8081201F01F03012BEA
:103CD0000FD05AB23AB1022B10D001F08001204629
:103CE00004F01EFB03E02946204600F07EFA002087
:103CF00038BD2946204600F09CFAF8E729462046C0
:103D000000F0B2FAF3E710B5044629BB1346D0F829
:103D1000F421032A01D0002010BDD0F80C11D0F8F6
:103D2000102191420BD8D0F814321B691BB190F8C6
:103D3000FC21032A0ED0204600F062FBEBE7891A33
:103D4000C0F80C118A4228BF0A4692B2194600F008
:103D50004FFBE0E79847EEE70A46D0F814329B693C
:103D6000002BD8D090F8FC110329D4D111469847E4
:103D7000D1E710B50446002947D11346D0F8F42105
:103D8000022A05D094F80032012B3AD0002010BD51
:103D9000C169026A914217D88169B1FBF2F302FB53
:103DA00013132BB98A4203D8D0F8F831994218D3AB
:103DB000D4F81432DB681BB194F8FC21032A1DD01F
:103DC000204600F028FBDDE78A1AC26192B219464C
:103DD00000F006FB00231A461946204604F0FBFAC1
:103DE000D0E70022114600F0FBFA0021C4F8F811D8
:103DF0000B460A46204604F0EEFAC3E720469847F1
:103E0000DEE7002384F80032C0E70A46D0F8143217
:103E10005B69002BBAD090F8FC110329B6D111468A
:103E20009847B3E738B5044640230022114604F012
:103E300052FA4025C4F810512B460022802120461A
:103E400004F049FA2562012384F8FC31D4F81832D1
:103E50002BB1D4F814325B682179204698470020B2
:103E600038BD01740020704790F8FC3180F8FD31B6
:103E7000042380F8FC310020704790F8FD3180F871
:103E8000FC310020704708B590F8FC31032B01D0BD
:103E9000002008BDD0F81432DB69002BF8D0984719
:103EA000F6E700207047002070470020704708B5F3
:103EB000012280F8FC21D0F8142252680179904741
:103EC000002008BD002302781AB10133DBB20130B3
:103ED000F9E7184670474B88012B00D0704710B5A2
:103EE0000446C0F80432D0F814329B689847204644
:103EF00000F086FA10BD0B7803704B7843708B7816
:103F0000CA7803EB022343800B794A7903EB02233F
:103F100083808B79CA7903EB0223C380704710B585
:103F20000446802104F0FCF90021204604F0F8F951
:103F300010BD30B583B004460D464A88130A013BD4
:103F4000062B00F28180DFE803F00413277F7F63F4
:103F50007000D0F810321B680DF10601007C984704
:103F6000BDF8062012B1EB88002B71D103B030BD33
:103F7000037C43B9D0F814329B6A0DF106009847D0
:103F800002234370ECE7D0F81432DB6A0DF106002F
:103F9000984702234370E3E7D2B2052A34D8DFE81A
:103FA00002F0030B131B232BD0F810325B680DF1CA
:103FB0000601007C9847D3E7D0F810329B680DF1DA
:103FC0000601007C9847CBE7D0F81032DB680DF192
:103FD0000601007C9847C3E7D0F810321B690DF149
:103FE0000601007C9847BBE7D0F810325B690DF101
:103FF0000601007C9847B3E7D0F810329B690DF1B9
:104000000601007C9847ABE72946FFF788FFADE73C
:10401000037C33B9D0F814325B6B0DF1060098477E
:104020009EE72946FFF77BFFA0E7037C43B9D0F862
:1040300014321B6B0DF106009847072343708FE77E
:104040002946FFF76CFF91E72946FFF768FF8DE7E8
:104050009A4228BF1A46ADF806200146204600F0D5
:10406000B2F983E738B504468B88E3B9CB88D3B976
:104070008D7805F07F0590F8FC31032B0CD080F88B
:10408000FE51294604F085F9204600F0B9F935B112
:10409000022384F8FC3109E0FFF741FF06E0012329
:1040A00084F8FC3102E02046FFF739FF38BD0000FC
:1040B00038B504460D468978254B1970012909D871
:1040C00090F8FC31022B09D0032B1CD02946FFF7B6
:1040D00026FF02E02946FFF722FF38BD81B141608B
:1040E000032380F8FC31FFF7CCFD022803D02046E3
:1040F00000F086F9F1E729462046FFF710FFECE7CC
:1041000000F07EF9E9E789B1436899421DD0D9B240
:10411000FFF7C4FD0E4B197861602046FFF7B1FD33
:1041200002280DD0204600F06BF9D6E7022380F874
:10413000FC314160FFF7B2FD204600F061F9CCE7A9
:1041400029462046FFF7EBFEC7E700F059F9C4E720
:104150005C09002008B5CB88012B08D190F8FC3110
:10416000022B07D0032B0DD0FFF7D9FE01E0FFF79C
:10417000D6FE08BD0146002341F8083F012200F0A9
:1041800022F9F6E70122011D00F01DF9F1E708B55B
:1041900090F8FC31023B012B0CD80123C360D0F80E
:1041A00004320BB10323C360022200F10C0100F0C2
:1041B0000AF908BDFFF7B3FEFBE710B5044690F817
:1041C000FC31023B012B0DD84B88012B0CD1002375
:1041D000C0F80432D0F814329B689847204600F0AB
:1041E0000FF901E0FFF79BFE10BD08B54B78092BD6
:1041F0001CD8DFE803F012181B151B09051B0F0C58
:10420000FFF797FE002008BDFFF72CFFFAE7FFF746
:104210004FFFF7E7FFF79EFFF4E7FFF7B8FFF1E77F
:10422000FFF759FEEEE7FFF7C8FFEBE7FFF777FE72
:10423000E8E738B504460D4690F8FC31032B0FD162
:104240000B79012B09D8D0F814329B689847EB887A
:1042500043B9204600F0D4F804E0FFF760FE01E027
:10426000FFF75DFE002038BD38B505460C468A884C
:104270000B7803F06003202B13D0D1B26378012BAD
:1042800030D058B2002851D0032B0ED195F8FC3114
:10429000022B0CD0032B12D021462846FFF73FFEFD
:1042A00003E0D0F814329B689847002038BD0029FD
:1042B000FBD08029F9D0284604F032F8F5E763886E
:1042C00013B909B1802909D1D5F814329B68214668
:1042D00028469847284600F093F8E6E7284604F079
:1042E0001FF8F1E790F8FC31022B05D0032B0AD020
:1042F0002146FFF714FED8E70029D6D08029D4D074
:1043000004F00EF8D1E76388002BCED111F07F0FB7
:1043100003D1284600F074F8C7E704F012F8D5F886
:1043200014329B68214628469847F2E795F8FC31FD
:10433000022B06D0032B0BD021462846FFF7EFFDBA
:10434000B3E711F07F0FB0D0284603F0E9FFACE7E8
:1043500012F0800F11D101F07F04103405EB04142A
:104360000434284603F0FEFF70B1012323600222CB
:104370002146284600F027F897E701F07F04013432
:1043800005EB04140434ECE700232360EFE7C8B125
:1043900070B50D4616460446FFF794FD0130400007
:1043A00080B23080287003236B700223217841B1E2
:1043B00001345A1CD2B2E9540233DBB20021A954B1
:1043C000F4E770BD704710B513460222C0F8F4211F
:1043D0008361C3610A46002103F0ECFF002010BD99
:1043E00008B513460A46002103F0E4FF002008BD8B
:1043F00008B513460A46002103F0EDFF002008BD72
:1044000008B50423C0F8F43100231A46194603F016
:10441000D1FF002008BD08B50523C0F8F431002302
:104420001A46194603F0D7FF002008BD842801D0A2
:10443000033070470020704708B500F019FD0020D8
:1044400008BDF0B585B00F46446805680669B0F947
:104450000800FFF7EBFF03AB019300903B46B2B2BD
:104460002946204600F0D2FC012802D1039805B06D
:10447000F0BD0020FBE700F1080343604FF0FF327E
:104480008260C360036100230360704700230361FF
:10449000704743684B609A688A6051609960086110
:1044A000036801330360704730B40D68B5F1FF3F16
:1044B00002D000F1080202E0026904E01A465368E3
:1044C0001C68AC42FAD953684B6099608A605160AD
:1044D000086103680133036030BC704703694168B9
:1044E00082688A60416851605A68824205D0002221
:1044F0000261186801381860704782685A60F6E7F0
:1045000010B5044601F036FBA26BE36B9A4204D06F
:10451000002401F051FB204610BD0124F9E710B53D
:10452000044601F027FBA36B23B9012401F044FBEF
:10453000204610BD0024F9E770B504461646856B89
:10454000026C5AB903681BB100200135A56370BD28
:10455000406801F015F800236360F6E76EB98068E3
:1045600004F07CFC226CA3681344A360626893424D
:1045700019D32368A3600020E7E7C06804F06EFC4D
:10458000226C5242E3681344E36021688B4202D2FA
:1045900063681A44E260022E01D00020D5E725B1FD
:1045A000013D0020D1E70020CFE70020CDE7026CDD
:1045B00072B110B5C3681344C3604468A34201D309
:1045C0000368C3600C46C168204604F047FC10BD78
:1045D000704738B5054601F0CDFA95F8454064B20C
:1045E00003E000F05FFF013C64B2002C08DD6B6A61
:1045F00033B105F1240000F0BFFE0028F3D0F0E74E
:10460000FF2385F8453001F0D7FA01F0B3FA95F8A9
:10461000444064B203E000F045FF013C64B2002C6A
:1046200008DD2B6933B105F1100000F0A5FE00286C
:10463000F3D0F0E7FF2385F8443001F0BDFA38BD30
:1046400038B5E0B104460D4601F094FA2168E26BFA
:10465000236C03FB021060600020A063A160013A9C
:1046600002FB0313E360FF2384F8443084F84530F1
:10467000EDB9236963B901F09FFA012038BD4FF00D
:10468000500383F31188BFF36F8FBFF34F8FFEE7A3
:1046900004F1100000F070FE0028ECD0084B4FF041
:1046A00080521A60BFF34F8FBFF36F8FE3E704F1BF
:1046B0001000FFF7E0FE04F12400FFF7DCFEDAE76C
:1046C00004ED00E010B5029B0C4639B91B60D863BD
:1046D0001C6401211846FFF7B3FF10BD1A60F6E70E
:1046E00040B94FF0500383F31188BFF36F8FBFF3CE
:1046F0004F8FFEE7F0B583B0054699B101FB00F09E
:1047000017460C46483001F0C1FB064638B1009010
:104710003B4600F1480221462846FFF7D3FF3046CA
:1047200003B0F0BD0020EBE7F0B585B0019278B1A1
:104730000446B1B1022B20D1E26B012A1DD04FF00B
:10474000500383F31188BFF36F8FBFF34F8FFEE7E2
:104750004FF0500383F31188BFF36F8FBFF34F8F78
:10476000FEE7026C002AE5D04FF0500383F3118876
:10477000BFF36F8FBFF34F8FFEE71E460F4600F06B
:1047800099FE50B9019B53B14FF0500383F3118848
:10479000BFF36F8FBFF34F8FFEE700253BE000258F
:1047A00039E0324639462046FFF7C6FE636A6BB9E8
:1047B00038B13C4B4FF080521A60BFF34F8FBFF3BC
:1047C0006F8F01F0F9F9012005B0F0BD04F124006C
:1047D00000F0D2FD0028F4D0324B4FF080521A6026
:1047E000BFF34F8FBFF36F8FEBE701F0E5F90020C8
:1047F000EAE702A800F002FE012519E0002384F890
:10480000443021E0002384F8453023E02046FFF7C0
:10481000E0FE00F001FC01F0ADF9A26BE36B9A42FF
:10482000BFD3022EBDD0019B002BDED0002DE0D0E7
:1048300001F0C2F900F05AFB01F09CF994F8443001
:104840005BB2B3F1FF3FD9D094F845305BB2B3F11E
:10485000FF3FD7D001F0B0F901A902A800F0E2FDB6
:10486000C8B92046FFF74CFE0028CFD0019904F1CB
:10487000100000F049FD2046FFF7ABFE00F0CCFB36
:104880000028C8D1074B4FF080521A60BFF34F8FFA
:10489000BFF36F8FBFE72046FFF79BFE00F0BCFB26
:1048A000002091E704ED00E048B108B50021416027
:1048B0000160C1600B460A46FFF736FF08BD70472E
:1048C00010B5024600210120FFF70AFF0446FFF75A
:1048D000EBFF204610BD2DE9F84378B10446B1B195
:1048E000022B20D1E06B01281DD04FF0500383F341
:1048F0001188BFF36F8FBFF34F8FFEE74FF0500368
:1049000083F31188BFF36F8FBFF34F8FFEE7006C07
:104910000028E5D04FF0500383F31188BFF36F8F69
:10492000BFF34F8FFEE71F469046894601F032FAEB
:10493000EFF311864FF0500383F31188BFF36F8FAD
:10494000BFF34F8FA26BE36B9A4206D3022F04D0C2
:10495000002086F31188BDE8F88394F845506DB2C5
:104960003A4649462046FFF7E7FDB5F1FF3F05D03F
:104970006B1C5BB284F845300120EAE7636A0BB92F
:104980000120E6E704F1240000F0F6FC30B1B8F1B4
:10499000000F05D00120C8F80000DAE70120D8E7B1
:1049A0000120D6E72DE9F04184B0019288B1044698
:1049B000C1B11F46884600F07DFDF8B9019BFBB1EF
:1049C0004FF0500383F31188BFF36F8FBFF34F8F06
:1049D000FEE74FF0500383F31188BFF36F8FBFF3EF
:1049E0004F8FFEE7026C002AE3D04FF0500383F3B1
:1049F0001188BFF36F8FBFF34F8FFEE7002662E091
:104A0000002660E0E66841462046FFF7D0FDF7B992
:104A1000013DA56323683BB123694BB901F0CCF894
:104A2000012004B0BDE8F08100F006FE6060F3E70D
:104A300004F1100000F0A0FC0028EFD0434B4FF031
:104A400080521A60BFF34F8FBFF36F8FE6E7E660C7
:104A5000636A002BE2D004F1240000F08DFC0028F2
:104A6000DCD03A4B4FF080521A60BFF34F8FBFF348
:104A70006F8FD3E701F0A0F80020D2E702A800F082
:104A8000BDFC012629E0002384F8443031E00023F6
:104A900084F8453033E001F06DF8606800F01AFDED
:104AA00001F08AF83BE02046FFF793FD00F0B4FAEE
:104AB00009E02046FFF78DFD00F0AEFA2046FFF733
:104AC0002EFD002840D101F055F8A56B002D99D19D
:104AD000019B002BCED0002ED0D001F06DF800F05D
:104AE00005FA01F047F894F844305BB2B3F1FF3FA8
:104AF000C9D094F845305BB2B3F1FF3FC7D001F0A5
:104B00005BF801A902A800F08DFC0028D1D1204655
:104B1000FFF705FD0028C6D02368002BBBD0019904
:104B200004F1240000F0F0FB2046FFF752FD00F0F6
:104B300073FA0028C7D1054B4FF080521A60BFF3BB
:104B40004F8FBFF36F8FBEE700206AE704ED00E0F0
:104B50000023072B0CD8074A52F833200AB101333F
:104B6000F7E7044A42F8331002EBC303586070477A
:104B7000704700BF6847002070B504460D461646D2
:104B800000F0F8FF94F844305BB2B3F1FF3F0DD072
:104B900094F845305BB2B3F1FF3F0BD001F00CF855
:104BA000A36B5BB12046FFF714FD70BD002384F8B2
:104BB0004430EDE7002384F84530EFE732462946DC
:104BC00004F1240000F0BAFBECE70000074B9B6AFD
:104BD0001B6823B9054B4FF0FF32DA627047034B75
:104BE0009A6AD268D2685268DA6270476009002017
:104BF00010B50446006B01F0C3F9204601F0C0F97E
:104C000010BD2DE9F04780469946089D099F0A9CF2
:104C1000266B02F18042013A06EB820626F0070677
:104C200000230F2B06D8CA5CE01880F834200AB1A4
:104C30000133F6E7002384F84330062D00D906251A
:104C4000E56265644FF0000AC4F848A0201DFFF734
:104C50001DFC04F11800FFF719FC2461C5F10705DC
:104C6000A5616462C4F84CA084F850A04A4641464D
:104C7000304600F055FF206007B13C60BDE8F0878A
:104C800070B50024062C08D804EB84029300104869
:104C90001844FFF7F0FB0134F4E70E4C04F1BC06B6
:104CA0003046FFF7E8FB04F1D0052846FFF7E3FBA9
:104CB00004F11400FFF7DFFB04F1E400FFF7DBFB76
:104CC0002046FFF7D8FBA662C4F8F85070BD00BFBD
:104CD000900900206009002038B5054600F04AFF21
:104CE000264BD3F8FC200132C3F8FC20D3F8003166
:104CF00073B1224BD3F804318BB9204BD3F8003178
:104D0000DA6AEB6A9A420AD81C4BC3F8005106E0F3
:104D10001A4BC3F80051D3F8FC30012B2AD0174CA2
:104D2000D4F808310133C4F80831EB6A01229A4003
:104D3000D4F80C110A43C4F80C2104F1300003EB41
:104D400083039A00291D1044FFF7A3FB00F034FFF2
:104D5000D4F804316BB1D4F80031DA6AEB6A9A42C4
:104D600007D2074B4FF080521A60BFF34F8FBFF34B
:104D70006F8F38BDFFF784FFD1E700BF60090020C7
:104D800004ED00E070B504460E461F4BD3F81051F9
:104D9000D3F800010430FFF7A1FB60B91A4BD3F838
:104DA0000021D16A012202FA01F1D3F80C2122EA92
:104DB0000102C3F80C21B4F1FF3F0FD02C44124B79
:104DC000D3F800315C60A54211D90F4BD3F8F8003D
:104DD000D3F800110431FFF767FB70BD002EEDD052
:104DE0000948D0F800110431FFF753FBF5E7064DF1
:104DF000A86AD5F800110431FFF756FBEB6AA3420D
:104E0000EBD9EC62E9E700BF600900202DE9F0432F
:104E100085B00746884614469946900001F036F85A
:104E2000E8B10646542001F031F8054698B1066312
:104E3000D5B10023039302950D9B01930C9B009326
:104E40004B46224641463846FFF7DBFE2846FFF731
:104E500043FF012005E0304601F092F8E8E74FF00B
:104E6000FF3005B0BDE8F0834FF0FF30F9E70000F8
:104E700000B583B0194B0193002300938022184999
:104E80001848FFF7C3FF012807D0012808D0B0F168
:104E9000FF3F1AD003B05DF804FB00F055FCF4E7C7
:104EA0004FF0500383F31188BFF36F8FBFF34F8F21
:104EB0000D4B4FF0FF32DA620122C3F804210022C9
:104EC000C3F8102100F0F2FEE4E74FF0500383F343
:104ED0001188BFF36F8FBFF34F8FFEE77C0A00206E
:104EE00080BB00085152000860090020034AD2F834
:104EF00018310133C2F81831704700BF6009002033
:104F0000014BD3F810017047600900202DE9F041F2
:104F1000404BD3F81831002B6CD13E4BD3F81051D5
:104F20000135C3F81051CDB99B6A1B6843B14FF0EE
:104F3000500383F31188BFF36F8FBFF34F8FFEE7EA
:104F4000344B9A6AD3F8F8109962C3F8F820D3F872
:104F500020210132C3F82021FFF738FE2D4BDB6AF8
:104F6000AB423DD900242B4AD2F80031DB6A03EB77
:104F7000830399000A44136B012B42D9012440E0BA
:104F80000124244B9B6A1B6863B3224B9B6ADB683A
:104F9000DE6873689D422AD306F104084046FFF795
:104FA0009DFAB36A1BB106F11800FFF797FAF36A8E
:104FB00001229A40174FD7F80C110A43C7F80C2169
:104FC00007F1300003EB83039A0041461044FFF7DA
:104FD00060FAF26AD7F80031DB6A9A42D0D2D0E7A1
:104FE0000024CEE70B4B4FF0FF32DA62BBE7094AF1
:104FF000D362B8E7074AD2F824310133C2F824312A
:105000000024044BD3F8283103B101242046BDE825
:10501000F08100BF600900203A4BD3F8183143B942
:105020004FF0500383F31188BFF36F8FBFF34F8F9F
:10503000FEE770B500F09EFD324BD3F81821013A1F
:10504000C3F81821D3F81831002B54D12D4BD3F8C5
:10505000FC300BB900244FE000242A4B5B692BB3D2
:10506000284D2B6ADC6804F11800FFF737FA261D7B
:105070003046FFF733FAE36A01229A40D5F80C1163
:105080000A43C5F80C2105F1300003EB83039A00B5
:1050900031461044FFF7FDF9E26AD5F80031DB6ACA
:1050A0009A42DAD30122C5F82821D6E70CB1FFF7DE
:1050B0008DFD144BD3F824417CB9124BD3F8283121
:1050C000F3B1114B4FF080521A60BFF34F8FBFF313
:1050D0006F8F012410E0013C08D0FFF717FF002874
:1050E000F9D0084B0122C3F82821F4E7054B002230
:1050F000C3F82421E1E7002400F05EFD204670BDE6
:105100000024F9E76009002004ED00E038B550B153
:10511000054689B94FF0500383F31188BFF36F8FB1
:10512000BFF34F8FFEE74FF0500383F31188BFF3B7
:105130006F8FBFF34F8FFEE71B4BD3F8183143B18E
:105140004FF0500383F31188BFF36F8FBFF34F8F7E
:10515000FEE70C46FFF7CAFE134BD3F810012A688E
:105160001444824209D9A24201D82C600EE0A04228
:1051700001D32C600AE02C6004E0A24201D8A042D6
:1051800010D22C600021201AFFF7FCFDFFF744FF2E
:1051900038B9064B4FF080521A60BFF34F8FBFF300
:1051A0006F8F38BD2C60F1E76009002004ED00E04E
:1051B00010B5B0B104460F4BD3F8183143B14FF0DE
:1051C000500383F31188BFF36F8FBFF34F8FFEE758
:1051D000FFF78CFE00212046FFF7D4FDFFF71CFFF0
:1051E00038B9054B4FF080521A60BFF34F8FBFF3B1
:1051F0006F8F10BD6009002004ED00E038B5134B3F
:10520000D3F814310BB3FFF771FE104BD3F8E44021
:10521000FFF702FF002CF2D000F0ACFC0B4CD4F8EE
:10522000F030DD68281DFFF759F9D4F8FC30013B58
:10523000C4F8FC30D4F81431013BC4F8143100F048
:10524000BBFC2846FFF7D4FCD9E738BD6009002035
:1052500008B5FFF7D3FF064B1B6B012BF9D9054BA4
:105260004FF080521A60BFF34F8FBFF36F8FF0E79C
:105270006009002004ED00E0224BD3F8183123B17F
:10528000204B0122C3F8282170471E4A0023C2F890
:105290002831D2F80C31B3FA83F3DBB2C3F11F0328
:1052A00003EB830081000A44126B42B94FF05003B4
:1052B00083F31188BFF36F8FBFF34F8FFEE710B4F6
:1052C000104A9900CC18A0001044446B64684463F1
:1052D00030321944880001460830024494420BD011
:1052E000084903EB83039A000A44536BDB68C1F857
:1052F00000315DF8044B70476068024A0A4450630D
:10530000EEE700BF6009002060B110B50C460A4B03
:10531000D3F800111831FFF7C7F801212046FFF735
:1053200031FD10BD4FF0500383F31188BFF36F8F31
:10533000BFF34F8FFEE700BF6009002038B578B19A
:105340000C4615460B4AD2F800111831FFF7A1F8A8
:105350000DB14FF0FF3429462046FFF713FD38BD4D
:105360004FF0500383F31188BFF36F8FBFF34F8F5C
:10537000FEE700BF6009002038B5C368DC684CB3A5
:1053800004F118052846FFF7A9F81A4BD3F818318D
:105390004BBB251D2846FFF7A1F8E36A0121994080
:1053A000144AD2F80C010143C2F80C11303203EB5D
:1053B0008303980029461044FFF76BF8E26A0D4B0F
:1053C000D3F80031DB6A9A4212D90120094BC3F8A5
:1053D00028010EE04FF0500383F31188BFF36F8F65
:1053E000BFF34F8FFEE729460348FFF752F8E5E782
:1053F000002038BD600900207409002038B1084A37
:10540000D2F820110160D2F81021426070474FF0AD
:10541000500383F31188BFF36F8FBFF34F8FFEE705
:105420006009002038B5C8B1044601B30D4600F04C
:10543000A1FB1B4BD3F810112A68B2F1FF3F27D014
:105440002068D3F82031984202D063688B4224D977
:105450006368C81A824213D801241AE04FF050033F
:1054600083F31188BFF36F8FBFF34F8FFEE74FF0C9
:10547000500383F31188BFF36F8FBFF34F8FFEE7A5
:105480005B1A13442B602046FFF7B8FF002400E0AE
:10549000002400F091FB204638BD0124F9E700BF4D
:1054A00060090020024B0122C3F82821704700BF89
:1054B00060090020064BD3F804313BB1044BD3F80C
:1054C00018310BB10020704702207047012070474F
:1054D0006009002000284ED038B50546C26A26492A
:1054E000D1F80011C96A8A4216D28169002906DB07
:1054F0002149D1F80011C96AC1F1070181616869C8
:1055000002EB820291001D4A0A44904205D01A4AD9
:10551000D2F80021D26AEA6238BD2C1D2046FEF77F
:10552000DDFFA0B11448D0F80031DB6AEB62012244
:105530009A40D0F80C110A43C0F80C21303003EB2C
:1055400083039A0021461044FEF7A3FFE4E7EA6ACA
:1055500002EB82039900084B0B441B6B002BE1D13B
:10556000012303FA02F20449D1F80C3123EA0203C1
:10557000C1F80C31D6E7704760090020900900207F
:10558000002852D038B504462A4AD2F80021824277
:1055900008D04FF0500383F31188BFF36F8FBFF330
:1055A0004F8FFEE7826C42B94FF0500383F31188AE
:1055B000BFF36F8FBFF34F8FFEE7013A8264C06A7B
:1055C000616C884233D00AB1002038BD251D2846C1
:1055D000FEF784FF88B9E26A02EB82039900154B5B
:1055E0000B441B6B4BB9012303FA02F21149D1F8AA
:1055F0000C3123EA0203C1F80C31636CE362C3F19E
:105600000702A261012404FA03F10A4AD2F80C014C
:105610000143C2F80C11303203EB83039800294692
:105620001044FEF736FF2046CFE7002070470020E9
:10563000CBE700BF60090020064BD3F800312BB147
:10564000044BD3F80021936C01339364014BD3F8DE
:105650000001704760090020064B1A681368B3FA0E
:1056600083F35B09036013B9D3681868704700209F
:10567000704700BF8C0A002008B54160006191426C
:105680000CD8D21A83699A4201D3012008BD011DAA
:10569000094B5868FEF708FF0020F7E79A4201D24D
:1056A000994206D2011D044B1868FEF7FDFE00204A
:1056B000ECE70120EAE700BF8C0A002070B500F09B
:1056C00059FA0F4B9B6813B100F076FA70BD0C4C81
:1056D00004F10C063046FEF7CEFE04F12005284604
:1056E000FEF7C9FE2660656000220C210A20FEF745
:1056F000F7FFA0600028E7D00249FFF729FAE3E7A7
:105700008C0A002088BB00082DE9F041079C41B9B4
:105710004FF0500383F31188BFF36F8FBFF34F8FA8
:10572000FEE70F4674B11D4616468046FFF7C6FFDA
:10573000C4F80080A761E6612562069B6362201DB4
:10574000FEF7A4FEBDE8F08100B583B0FFF7B6FF19
:105750000D4B9B685BB10D4B019304230093002319
:105760004FF480720A490B48FFF750FB40B94FF0E5
:10577000500383F31188BFF36F8FBFF34F8FFEE7A2
:1057800003B05DF804FB00BF8C0A0020C00A0020B3
:1057900090BB0008A15A00082DE9F04182B00546EF
:1057A0000E4617469846282000F070FB044640B18C
:1057B0000190089B009343463A4631462846FFF73E
:1057C000A3FF204602B0BDE8F0810000C0B130B5B3
:1057D00085B015460446174A906840B31A460191B1
:1057E0000295039405291CDCFFF764FE022810D003
:1057F00000231A4601A90F488068FEF795FF14E0C0
:105800004FF0500383F31188BFF36F8FBFF34F8FB7
:10581000FEE70023089A01A906488068FEF784FF86
:1058200003E0002301A9FFF756F805B030BD0020C2
:10583000FBE700BF8C0A0020204B1B681A68002A77
:1058400037D070B582B0DB681E68DC68251D28463D
:10585000FEF744FE636A20469847E369012B0AD0AD
:10586000164B1B681A68002AEDD1144A5168116062
:10587000536002B070BDA36933449E4207D2636097
:10588000246129460D4B1868FEF70EFEE8E700215B
:1058900000910B4632462046FFF798FF0028DFD1E3
:1058A0004FF0500383F31188BFF36F8FBFF34F8F17
:1058B000FEE7024A51681160536070478C0A00206D
:1058C00038B50546FFF71CFB0446074B9B6B83422C
:1058D00005D800232B60044B9C63204638BDFFF79E
:1058E000ABFF01232B60F6E78C0A002070B582B075
:1058F00005460E46144B1B68DB68DC68201DFEF76E
:10590000EDFDE369012B04D0636A2046984702B09D
:1059100070BDA1692B46324629442046FFF7ACFEF4
:105920000028F1D0002100910B462A462046FFF7BF
:105930004DFF0028E8D14FF0500383F31188BFF3E7
:105940006F8FBFF34F8FFEE78C0A002070B582B0D7
:1059500006460C46FFF7CAFA01A8FFF7B1FF019B04
:105960001BBB05460CB9B04218D22CB1114B5B6879
:105970001C68B4FA84F464092246711B0D4B9868C4
:10598000FFF7FAF8FFF748FB88B90B4B4FF080524E
:105990001A60BFF34F8FBFF36F8F08E0FFF73CFB38
:1059A00029463046FFF7A2FF01E0FFF735FB02B0C2
:1059B00070BD00BF8C0A002004ED00E030B587B058
:1059C00000231A4603A935488068FEF7EBFF00283C
:1059D00061D0039B002BF3DB059C636913B1201D91
:1059E000FEF77CFD02A8FFF76BFF039B092BE7D8AE
:1059F00001A252F823F000BF215A0008215A0008E2
:105A0000215A0008C1590008695A00088F5A000835
:105A1000215A0008215A0008C1590008695A000893
:105A20000499A5690B46024629442046FFF724FE47
:105A30000028C5D0636A20469847E369012BBFD18F
:105A4000A269002100910B46049802442046FFF70A
:105A5000BDFE0028B4D14FF0500383F31188BFF38B
:105A60006F8FBFF34F8FFEE70499A16131B10346F9
:105A7000024601442046FFF7FFFDA1E74FF0500327
:105A800083F31188BFF36F8FBFF34F8FFEE720467C
:105A900000F076FA94E707B030BD00BF8C0A002012
:105AA00000B583B001A8FFF7D7FD0199FFF74EFFBE
:105AB000FFF784FFF6E700000B4B1B68B3F1FF3FD5
:105AC00008D04FF0500383F31188BFF36F8FBFF3FB
:105AD0004F8FFEE74FF0500383F31188BFF36F8FB2
